:020000040800F2
:100000000050002021020008290200082D020008EB
:1000100045020008490200086102000800000000D3
:10002000000000000000000000000000790200084D
:100030007D0200080000000081020008850200081F
:100040009502000895020008950200089502000834
:100050009502000895020008950200089502000824
:100060009502000895020008950200089502000814
:100070009502000895020008950200089502000804
:1000800095020008950200089502000895020008F4
:1000900095020008950200089502000895020008E4
:1000A00095020008950200089502000895020008D4
:1000B00095020008950200089502000895020008C4
:1000C00095020008950200089502000895020008B4
:1000D00095020008950200089502000895020008A4
:1000E0009502000895020008950200080000000033
:1000F0000000000000000000000000000000000000
:1001000000000000000000005FF808F100B583B0B7
:1001100000F002F9304B314A1360314A1360314B21
:10012000314A03E011681960043304322F498B42CD
:10013000F8D32A4B1A682E4B9A4204D1284B1A68DE
:100140002C4B9A4200D0FEE7234B2B4A13602B4ADC
:1001500013602B4B02E000221A600433294A9342B9
:10016000F9D3254B1B6813B9244B1B6803B1FEE779
:1001700000F0DEF8694601A800F0C6F8224C234BD7
:100180001C1BA410002504E01F4B53F82530984792
:100190000135AC42F8DC1E4C1E4B1C1BA410002584
:1001A00004E01B4B53F8253098470135AC42F8DC8E
:1001B0000099019802F0D0FB0546174C174B1C1B09
:1001C000A41004E0013C144B53F824309847002C51
:1001D000F8DC284600F074F8BABADECA0000002045
:1001E0008C000020000000206445000890000020E2
:1001F000785634123254769890000020582300200C
:10020000900000205C230020C0020008C00200080B
:10021000C0020008C0020008C0020008C0020008B6
:1002200008B5FFF773FF00BF00BEFEE71EF0040F26
:100230000CBFEFF30880EFF309807146124A1047B4
:1002400000BEFEE700BEFEE71EF0040F0CBFEFF39A
:100250000880EFF3098071460C4A104700BEFEE7A4
:100260001EF0040F0CBFEFF30880EFF30980714616
:10027000074A104700BEFEE700BEFEE700BEFEE7ED
:1002800000BEFEE770470000410200085D02000862
:080290007502000800BEFEE744
:100298006445000800000020900000206445000824
:1002A8000000000000000000900000205C230020F7
:0802B80000000000000000003E
:1002C000FEE700BF08B50D4B1B6813B90C4A0B4B7A
:1002D0001A600A4B1A68C31C23F00303134409492C
:1002E0008B4206D902F088FB0C2303604FF0FF30ED
:1002F00008BD02490B60104608BD00BF94000020F5
:100300005C230020004C002001230360014B0B60A4
:10031000704700BF0400002008B500F073F8024BDE
:10032000024A9A6008BD00BF00ED00E0000000082E
:1003300008B500F08FF808BD82B000230193009348
:100340002C4A136843F4803313602A4B1B6803F470
:1003500000330093019B01330193009B1BB9019B68
:10036000B3F5A06FF1D1234B1B6813F4003F02D00B
:100370000123009301E000230093009B012B36D161
:100380001D4B1A6842F010021A601A6822F003022C
:100390001A601A6842F002021A60A3F580535A6884
:1003A0005A605A685A605A6842F480625A605A68C1
:1003B00022F47C125A605A6842F4E8125A601A68B1
:1003C00042F080721A600B4B1B6813F0007FFAD06A
:1003D000084B5A6822F003025A605A6842F002023F
:1003E0005A60044B5B6803F00C03082BF9D102B090
:1003F000704700BF001002400020024008B5FFF720
:100400009BFF08BD08B5104B1A6842F001021A6044
:1004100059680E4A0A405A601A6822F0847222F41F
:1004200080321A601A6822F480221A605A6822F414
:10043000FE025A604FF41F029A60FFF7DFFF4FF091
:100440000062034B9A6008BD001002400000FFF8F4
:1004500000ED00E01F4B5B6803F00C03042B06D09B
:10046000082B08D03BBB1C4A1C4B1A6026E01A4ADA
:100470001A4B1A6022E0174A53685268C3F3834349
:10048000023312F4803F05D1154A02FB03F3134AED
:10049000136013E00F4A526812F4003F05D0104A6F
:1004A00002FB03F30D4A136008E00B4A02FB03F35F
:1004B0000A4A136002E0084A084B1A60054B5B6861
:1004C000C3F30313074AD35CDAB204490B68D34081
:1004D0000B6070470010024000127A001C000020E0
:1004E00000093D000C000020002303850220704716
:1004F00010B50446038D13B18C2B02D009E08C2378
:1005000003852246054904F1280000F061FC0346FA
:1005100010B1002323850223184610BD21050008D1
:10052000F0B583B001F04EFE04460C4B1D6801F09F
:100530007FFE0646204601F07DFE0746204601F07C
:1005400099FE019000973346054A4FF4B77128464B
:1005500002F062FB80B203B0F0BD00BF400100209A
:10056000A43C000870B506460A4C0DE01D682846FC
:1005700002F064FC02463146284602F08DFC10B9B8
:100580002368586870BD04342368002BEED10248FC
:1005900070BD00BF20000020E904000810B4002353
:1005A000CC564CB1C2560D2A08D00A2A08D0944223
:1005B00008D10133DBB2F3E7002004E0002002E0C1
:1005C000002000E0012010BC704700BFF8B50646CF
:1005D0000F460D4C002513E061683046FFF7DEFF43
:1005E00058B9A3683B60E3687B60084A32F815306D
:1005F000013322F815300120F8BD0135ADB2246871
:10060000002CE9D10020F8BDB04100089C0000207A
:1006100038B504468388FD2B0DD001D84BB16DE071
:1006200040F2031293421ED040F2151293424DD075
:1006300064E0FD2383802021201D00F021FC03467F
:1006400000285ED00422304904F1500002F024FC5E
:1006500030B110222D4B1A700023A380012350E0EB
:1006600040F20313A380251D2021284600F008FC3A
:100670000346002845D094F950302F2B06D0102285
:10068000224B1A700023A38001233AE094F95130E1
:10069000202B06D114221E4904F1820002F04AFCEC
:1006A0000EE0284600F0CEFB01382044002380F8FD
:1006B0005030142204F1500104F1820002F03AFC9F
:1006C000012384F8963040F21513A380251D0A21DA
:1006D000284600F0D5FB034698B108220D4904F1E5
:1006E000500002F0D9FB0028EDD1284600F0AAFB0B
:1006F00002382044002380F85030E4E70023A38030
:100700000223184638BD00BF903C00083C01002081
:10071000983C0008DC3A000810B504460A21D0F8DD
:10072000A40002F0C5FA0130D4F8A430C31A9BB279
:10073000D4F8A820D31AC4F8A830C4F8A40010BD77
:1007400010B50446038D13B1712B02D00BE0712359
:100750000385D4F8A020D4F8981004F1280000F004
:100760000DFB034610B1002323850223184610BD5C
:1007700038B50446038DCB2B64D00D4609D8C22B67
:1007800017D001D89BB1B9E0C62B28D0C92B43D0D4
:10079000B4E0CF2B00F0828002D8CD2B68D0ADE042
:1007A000D12B00F09080D32B00F09C80A6E0C223D8
:1007B0000385284602F042FB0246294604F1280040
:1007C00000F0DCFA0346002800F09B802E2104F1A3
:1007D000820002F0E3FB054680B9C62323854A4D1B
:1007E000284602F02BFB0246294604F1280000F0BF
:1007F000C5FA0346002840F0818082E005220146C8
:10080000424802F049FB28B106222946404802F03E
:1008100043FB78B9C92323853E4D284602F00EFBE1
:100820000246294604F1280000F0A8FA03460028F1
:1008300064D166E004222946374802F02DFB78B9DE
:10084000CB232385354D284602F0F8FA0246294687
:1008500004F1280000F092FA034600284ED150E03F
:10086000042229462E4802F017FB78B9CD232385B0
:100870002C4D284602F0E2FA0246294604F12800EF
:1008800000F07CFA0346002838D13AE004222946D9
:10089000254802F001FB70B9CF232385234D28465C
:1008A00002F0CCFA0246294604F1280000F066FA6C
:1008B000034618BB25E0042229461D4802F0ECFA45
:1008C00070B9D12323851B4D284602F0B7FA0246A2
:1008D000294604F1280000F051FA034670B910E0EF
:1008E000D3232385144D284602F0A8FA0246294650
:1008F00004F1280000F042FA034610B100232385DA
:100900000223184638BD00BF203B0008F03A00081B
:10091000E83A0008683B0008543B0008A03B000888
:10092000F83A0008843B00084C3B0008BC3B000838
:10093000883C0008003B0008BC3A000810B504469B
:10094000038D13B1642B02D017E064232385224664
:100950000C4904F1280000F03BFA034680B1D4F8BA
:10096000A020D4F89C309B1AC4F89C30D4F898107E
:100970000A44C4F89820002BE7DC002323850223D7
:10098000184610BDA90B000810B50446B0F84E304B
:10099000902B24D002D8002B7BD07EE0932B27D045
:1009A000B12B65D079E0D4F8980090F90020252A81
:1009B00036D190F90120212A32D10330C4F8A400A5
:1009C000033BC4F8A83010F9013C3A2B0DD104F1D7
:1009D00098010130FFF7FAFD9023A4F84E3020462D
:1009E000FFF7ACFF034678B95BE09323A4F84E30E1
:1009F000D4F8A400FFF7B6FD0346D4F8A4102046AF
:100A00009847034600284CD02046FFF785FED4F8CF
:100A1000A430C4F89830D4F8A830C4F89C3038E03A
:100A2000214A1268528A934202DDC4F8A02001E0F4
:100A3000C4F8A03090F90030252B04D125210130D5
:100A400002F036F902E0252102F032F968B1D4F85B
:100A50009830984209D0C01AC4F8A000124B1B6805
:100A60005B8A984201DBC4F8A030B123A4F84E3071
:100A70002046FFF765FE034698B1D4F8A010D4F8DD
:100A800098200A44C4F89820D4F89C305B1AC4F823
:100A90009C30D4F89C30002B85DC0023A4F84E3029
:100AA0000223184610BD00BF44010020F8B50446DB
:100AB000B0F84C30E62B29D003D84BB1E42B1CD036
:100AC00055E0EE2B42D0F12B49D0EA2B4FD126E056
:100AD00000F1820500F1980631462846FFF776FDC1
:100AE000D0B9264F31463846FFF770FD39462846C3
:100AF00002F046F9E423A4F84C3021492046FFF7E0
:100B000037FE0346B8B3E623A4F84C302046FFF77F
:100B100015FF034640BB2EE0EA23A4F84C301949E8
:100B20002046FFF725FE034628B32E2104F182005C
:100B300002F0BEF880B10622134902F0ADF958B9AF
:100B40000023A4F84E30EE23A4F84C302046FFF7E3
:100B50001BFF034640B90EE0F123A4F84C302046B9
:100B6000FFF7ECFE034630B11022084B1A70002349
:100B7000A4F84C3002231846F8BD00BF5C3B0008C7
:100B8000D83B0008343C0008E83A00083C0100204B
:100B900010B50446FFF73CFD94F99630012B02D1C5
:100BA0002046FFF783FF10BD10B50446D0F89C30F7
:100BB0000A4A1268528A934202DDC0F8A02001E07E
:100BC000C0F8A030D4F8A020D4F89810044B1868CE
:100BD00001F018FFB4F8A00010BD00BF44010020D0
:100BE0004001002070B51F4B1C681F4B1B7813F091
:100BF000300F36D104F11C0513F0800F31D113F002
:100C0000400F17D004F16C063122314604F1200068
:100C100000F076F93122314604F1440000F070F919
:100C20000023A4F8683084F8B23023772846FFF711
:100C3000AFFF70BD95B113F0080F09D0237F0133CA
:100C4000DBB22377132B05D92022074B1A7001E062
:100C5000002323772846FFF79BFF70BD2022024B1D
:100C60001A7070BD440100203C01002008B54FF40B
:100C7000A04000F0E7F908BD01608280704700BF26
:100C800030B411E0046815682D78257014680134BB
:100C900014600468013404601C88013C1C80848852
:100CA000013C84808D4215D0848814B11C88002CAE
:100CB000E8D1188848B90FE0146824780138188002
:100CC000106801301060A14208D018880028F3D1C4
:100CD000012004E0022002E0002000E0032030BCFC
:100CE000704700BF90F82030062B1BD10F4B1B78AC
:100CF00013F0010F18D0038A0D4A1268518A8B42F3
:100D000006D95B1A0382538A42681344436004E0A5
:100D100042681344436000230382012380F820309B
:100D20001846704700207047002070473C010020A3
:100D30004401002010B590F82030062B04D10D4B53
:100D40001B7813F0040F13D00446038A0A4A126872
:100D5000518A8B4203D9406800F072FF03E01946C4
:100D6000406800F06DFF062384F82030012010BD9C
:100D7000002010BD3C0100204401002038B504468D
:100D8000438813B1CF2B0DD01BE01AB90023438049
:100D9000012038BD41600282002380F820300BE042
:100DA000CF2363802046FFF79DFF05462046FFF7CF
:100DB000C1FF284040B240B1238A002BF0D184F813
:100DC000203000236380022038BD002038BD00BFE2
:100DD000F8B504460E461746438813B1EE2B17D0DC
:100DE00025E019B9002343800120F8BD104688474B
:100DF0002082124B1B686360002384F82030104B64
:100E00001B7813F0040F01D03846B047EE236380FF
:100E10002046FFF767FF05462046FFF78BFF284077
:100E200040B240B1238A002BE9D184F8203000235E
:100E300063800220F8BD0020F8BD00BF4001002003
:100E40003C010020C369008B181A80B2704700BFB4
:100E5000438A7BB990F82030022B04D1032380F819
:100E6000203000207047054B1B7813F0020F03D091
:100E70000120704701207047002070473C0100208E
:100E800038B504460D46438823B140F21B12934205
:100E90000AD02CE0828BC1681430FFF7EDFE638A24
:100EA00083B940F21B1363802046FFF7D1FF03464E
:100EB00000B3022384F820300F4B1B68A3600F4B54
:100EC0001B88638204F1120304F10802294604F12D
:100ED0001400FFF7D5FE10F0020FE0D02046FFF718
:100EE000B1FF20B9002384F82030638002E00023A2
:100EF00063800223184638BD4001002030010020E5
:100F000038B50446002580F820504582C160C26192
:100F100092B21430FFF7B0FE2580658038BD00BF67
:100F200010B4013A0A440BE00C784B7803EB04232D
:100F30009BB2184480B2834201D9013080B20231A1
:100F40009142F1D307D10B781B02184480B283423F
:100F500001D9013080B210BC704700BF70B4C578B1
:100F60000D44EDB2134CE57083780E0A3344DBB2C6
:100F7000A37042786270007820709CB2A64206D9B5
:100F80000132D2B20B4C62700AB901302070C9B282
:100F90008D420CDA0133DBB2064A93703BB95378C9
:100FA0000133DBB2537013B913780133137070BC83
:100FB000704700BF3801002010B5094C2368014676
:100FC00003F10800FFF7CAFF2368064A1178197277
:100FD0005178597291789972D278DA7210BD00BF47
:100FE00044010020380100200022124B1A7006E054
:100FF0000021114A22F8131001330E4A13700D4BD1
:101000001B78272BF4D900220A4B1A7008E0CC2257
:101010000A4902FB0312002151760133054A13707D
:10102000044B1B78272BF2D94FF48062044B1A80B3
:10103000704700BFAE00002028210020480100209A
:10104000AC00002000220A4B1A700BE01946094A36
:1010500032F813201AB9074B23F8110070470133F7
:10106000034A1370024B1B78272BEFD9704700BF40
:10107000AE00002028210020030A43EA002080B2AD
:10108000704700BF08B5142205490020FFF748FF4C
:1010900010B1FFF7F1FF08BD4FF6FF7008BD00BFAC
:1010A000BE21002038B50D4D2C7C6B7C03EB042455
:1010B000143CA4B22044082205F11A0180B2FFF7C3
:1010C0002FFF224605F12201FFF72AFF10B1FFF79B
:1010D000D3FF38BD4FF6FF7038BD00BFB0210020F0
:1010E00008B50620FFF7DEFF08BD00BF70B5A04BB6
:1010F0001C68A04BA04A1360A04A1360032810D1BB
:10110000637E03F00F03032B40F08985238A002BB5
:1011100040F0858508229A4B1A70FFF763FD00F0B6
:101120003CBC02287ED1974AD3780133DBB2D3701E
:1011300063B993780133DBB293703BB953780133D1
:10114000DBB2537013B913780133137000238E4A46
:1011500013808E4A1380637E072B01D0052B0AD1A2
:10116000A37E0133DBB2A376782B40F058850023B1
:10117000637600F054BD002B00F05185228A002ACE
:1011800045D0A27E511EA176002A40F04885E27E1D
:10119000082A05D0013BDBB2012B0ED8052A0CD161
:1011A000002363768022764B1A70FFF71BFD142212
:1011B000774B83F82F2000F0ACBC042A03D803231C
:1011C0009340DBB200E03023A3760132E276714A2D
:1011D000D38C0133D384637E03F00F03013B072BD1
:1011E00000F21D85DFE813F0060208000D008403FD
:1011F0001B0584031B0584030022654B83F82F2005
:10120000FCE104225E4B1A70FFF7ECFCFAE303F0FA
:101210000F03032B40F003850822594B1A70FFF788
:10122000E1FCBAE35B4A538801335380584B9B7B04
:10123000452B08D01346128801321A80DA88013211
:10124000DA8000F0ECBC524A157C537C03EB05219C
:101250004D4A1288914200F3E2848DB24A4B1D80C0
:101260004B4B1B7D13F03F0F02D1494B5B7D43B1CC
:10127000484B1A8801321A809A8901329A8100F00B
:10128000CEBC454B1C880CB95B887BB1404BDB8BDB
:101290009C4205D13E4B1A8C3F4B5B889A4205D04D
:1012A0003C4A13880133138000F0B9BCFFF7EAFE13
:1012B0004FF6FF73984208D0364B1A8801321A80D5
:1012C000DA890132DA8100F0AABC314BDB7D062BD2
:1012D0003BD0012B08D02F4B1A8801321A801A8A72
:1012E00001321A8200F09BBC2A4A938A013393820E
:1012F000274B93F82230082B08D01346528A01322C
:101300005A821A8B01321A8300F089BC204B0022CA
:1013100083F822209B8C4FF6F672934203D909334F
:101320001B4A938402E00833194A9384184B5A8B62
:10133000DA839A8B1A845C83174A52889A83154AF7
:10134000D38A0133D38200F062BC124A938B0133FB
:101350009383FFF7C5FE4FF6FF73984237D00D4BCE
:101360005A8B01325A831A8C01321A8400F057BC0E
:1013700044010020E621002040010020340100202B
:101380003C010020A800002030010020562300204E
:10139000B02100207C210020AC210020627EA2B17F
:1013A000AD4B998CA38899420FD1AB4B598CE388F4
:1013B00099420AD1A84B598B2388994205D1A64B53
:1013C000998B6388994200F03381CC3400E0A34CC0
:1013D000A34B9C42E2D9A04B93F82F3003F03F037C
:1013E000022B18D19C4B9B8C99B29E4A13800022F1
:1013F0009D4B1A7007E09D4A32F81320914263D04A
:101400000133994A1370984B1B78272BF3D9984ACC
:10141000538D01335385904B93F82F3013F0040F05
:1014200040F0FD83924A938C013393848A4B1422BB
:1014300083F82F2028218F4A1180502283F82E20F4
:1014400093F8290093F82D2083F8292093F8281089
:1014500093F82C2083F8282083F82C1093F8272069
:1014600093F82B4083F8274083F82B2093F82640ED
:101470007D4D2C7093F82A5083F8265083F82A402B
:101480000130C0B283F82D0068B94B1CDBB2724941
:1014900081F82C303BB9531CDBB281F82B3013B9E7
:1014A000013481F82A406C4B5A8C6E490A80998C21
:1014B00059849A845A8BDA839A8B1A846E4A1188DB
:1014C000598352889A8376E30024674B1C701CE092
:1014D0001946CC22614802FB0302527E1AB9CC2481
:1014E00004FB010415E0072A0CD13CB1CC225B4976
:1014F00002FB0312917EA27E914203D9574ACC246B
:1015000004FB03240133584A1370574B1B78272BD5
:10151000DED924B9564A138D013313857FE3574B27
:101520001C600323A37623760023A3750422E275AF
:10153000E376494DAB8CA3806B8CE3806B8B23806F
:10154000AB8B6380012060764D4B1A7822735A78FA
:1015500062739A78A273DB78E373208295F829305E
:10156000E37295F82830A37295F82730637295F8E6
:1015700026302372FFF720FD95F82E0000F0F003CF
:10158000502B37DD0022384B1A702BE003F1360167
:10159000314D695C71B3012903D10133324A1370B3
:1015A00020E0022916D103F137012B4D695C042993
:1015B00010D102F13803E85C3932AB5C43EA002316
:1015C000284A1380B3F5B77F28BF4FF4B7736382FF
:1015D000A3820FE003F137021F498A5C52B1134422
:1015E000214A1370204B1B781A4601090539B3EBC9
:1015F000810FCBDB1022184B83F82F20164B93F86A
:101600002F2042F0020283F82F20022283F8362096
:10161000042283F83720012283F838206E2283F8D1
:1016200039202C21134A1180602283F82E2077E282
:10163000124B1C600021134B1970074B93F82F10AD
:1016400011F0040F20D00023637620220D4B1A7076
:10165000FFF7C8FAE3E200BFB021002048010020F4
:101660005C200020A2000020AE00002028210020E5
:101670007C21002030010020AC210020440100200A
:10168000A80000203C0100209C4B93F82E301B0941
:101690009B009B480370EB1A143B9BB29948038054
:1016A00002F00F02022A03D101F03F02122A0FD0EA
:1016B00013B911F0030F0BD0904BDA8C23899A42A7
:1016C00040F023828D4B1A8D63899A4240F01D822F
:1016D00011F0100F47D0218A002944D004F10C00EA
:1016E000FFF73CFC854B93F82A30874A10788342F9
:1016F00039D1824B93F82B3051788B4233D17F4BC9
:1017000093F82C30927893422DD17C4B93F82D5046
:101710007D4BDB789D4226D120736173A273E37306
:10172000E37ECBB9237EA27E9A1AD2B2A17DA2EB30
:10173000D102D2B253B21144C9B2A175002B01DA61
:10174000524253B2E07DA3EB9002D2B20244D3B234
:10175000E37503EBD103237601226C4B1A70237ED1
:10176000A37600232382617E01F00F03013B072B48
:1017700000F25582DFE813F00800230096007301A1
:10178000A201BE01C9016501604B1B7813F0010F76
:1017900000F045820323637640225C4B1A700023DD
:1017A0002382584B188820B14222584B1A70FFF7F9
:1017B00003FC0022564B1A80FFF714FAEDE0534B5E
:1017C0001B7813F0010F63D04C4B93F82F3003F0CC
:1017D0003F03122B5CD1494B93F82E0000F0F0032D
:1017E000502B37DD0022464B1A702BE003F13601F7
:1017F000424D695C71B3012903D10133404A137032
:1018000020E0022916D103F137013C4D695C04291F
:1018100010D102F13803E85C3932AB5C43EA0023B3
:101820003C4A1380B3F5B77F28BF4FF4B773638288
:10183000A3820FE003F1370230498A5C52B11344AE
:101840002F4A13702E4B1B781A4601090539B3EB4A
:10185000810FCBDB03236376284B93F8262022727B
:1018600093F82720627293F82820A27293F8293007
:10187000E3720120FFF7A0FB4222244B1A700023E1
:101880002382204A1380224A1380FFF7ABF984E0B9
:1018900020221E4B1A70FFF7A5F91F4B1B68002270
:1018A0005A76B8E5154B93F82F3013F0010F35D069
:1018B00011F0100F32D1238A002B40F0B081114D6E
:1018C0002888013080B2FFF777FB104A137843F085
:1018D000100313702A881AB143F002030B4A1370E5
:1018E000FFF780F901232382082363760023E37640
:1018F0001122024B83F82F200BE100BFB021002002
:10190000AE00002030010020380100203C01002002
:1019100056230020A20000204401002013F0200FD5
:1019200010D0994890F834301A0290F8353043EAD4
:101930000200964D2E683044286095481343028873
:10194000D31A0380924B188848B111F0100F06D1BA
:10195000904A137843F002031370FFF72DFB8A4A75
:1019600092F8301092F8313003EB01239BB28A4A8F
:101970001380A28A934200D80BB9874B1A80864BFA
:101980001B886382834B1B7813F0030F00F04781A1
:101990000022824B1A80FFF725F97E4B1B7813F04B
:1019A000200F08D000237D4A138063761422764BE3
:1019B00083F82F20ADE013F0100F0CD00023774AEE
:1019C00013800122228204226276E37611226E4B7A
:1019D00083F82F209DE0714A12888AB113F0010F1D
:1019E00001D000232382238A43B9638A9A4201D912
:1019F0006A4A1380694B1B88238201E0674A13807F
:101A00000023E376664B1A68604B1A60634B1B88B1
:101A10004BB1238A3BB128335D4A138018225A4BBD
:101A200083F82F2078E05B4B1B7813F0020F00F057
:101A3000F6802822564B1A801022534B83F82F2011
:101A40006AE0544B1B7813F0010F00F0E88000238C
:101A5000637610224F4B1A70FFF7C4F8DFE04C4B4F
:101A6000188808B1FFF7A8FA474B93F82F3013F006
:101A7000010F15D0474B1B7813F0010F05D007233A
:101A800063760023A376238201E006236376012098
:101A9000FFF792FA10223F4B1A70FFF7A3F834E0D9
:101AA0003C4B1B7813F0010F04D005236376002311
:101AB0002382B4E0364B1B883BBBB0E0344B188824
:101AC00008B1FFF779FA304B93F82F3013F0010F7C
:101AD0000CD0072363760023A3760120FFF76CFA6E
:101AE00010222C4B1A70FFF77DF80EE0284B1B8854
:101AF0005BB994E0274B1B7813F0010F00F08F8047
:101B0000072363760023A37689E010221E4B83F817
:101B10002F2028221E4B1A8050221B4B83F82E2088
:101B2000227A194B83F82A20627A83F82B20A27A32
:101B300083F82C20E27A83F82D20227B83F826205C
:101B4000627B83F82720A27B83F82820E27B83F83E
:101B500029200622DA75A2885A84E2889A84114ADA
:101B60001188598352889A832288DA8362881A847A
:101B7000637E13F0100F17D0034B002283F831203F
:101B800083F8302017E000BFB02100204001002082
:101B9000300100203C010020A2000020562300203C
:101BA00034010020AC210020204B012283F830209A
:101BB0006E2283F831201D4C4023A3751C4B1B88DB
:101BC0001A0A22746374002584F8355084F834505E
:101BD00084F8325084F83350FFF782FAC0436086AD
:101BE0004523A373E57365752575124A1388013380
:101BF0009BB213801A0AA274E37425766576FFF708
:101C000041FAC04320830C4AD38B0133D3830A4A61
:101C10009388013393800022084B1A7070BD002313
:101C2000034A1380054A137070BD00BFB021002025
:101C300030010020A40000207C2100203C01002075
:101C400000290CDD08B58AB2054B1A80054B1B68CC
:101C5000834203D00146184600F0D4FE08BD704709
:101C60005623002034010020F8B50C460022404BDA
:101C70001A7028E01E463F4F5A001A4491007D1802
:101C8000795AE9B103EB4307BA003A4F3A44528814
:101C9000B2B10788B94213D141888A4210D1354D7B
:101CA0005F00FA189300E81806222146043000F07D
:101CB000A9FE3E44B3002B442F4A12789A72F8BD15
:101CC00001332B4A13702A4B1B78072BD2D90022E1
:101CD000274B1A700FE0274E5A001A4491007518CE
:101CE000725A2AB903EB43018A003244528832B156
:101CF00001331F4A13701E4B1B78072BEBD9082B9F
:101D000028D100231D4A13701D4A1370184A1370FE
:101D100013E0194A117803EB4305AA00154D2A4434
:101D2000927A8E1A154D2D78AE4203DD134A167045
:101D3000134A137001330E4A13700D4B1B78072B97
:101D4000E7D90F4B1B780A4A137003EB43039A0041
:101D5000084D154404220146284600F053FE062291
:101D60002146281D00F04EFE034B1B78AB72F8BDD8
:101D7000B6000020B800002019010020B7000020A4
:101D80001801002008B500220A4B1A700CE003EB82
:101D90004303980004220021074B184400F0A8FEDA
:101DA000044A137801331370024B1B78072BEED9CA
:101DB00008BD00BFB6000020B8000020F8B5344BC5
:101DC0001B88292B03D80022314B1A80F8BD002232
:101DD0002F4B1A802F4B9B8AB3F5807F03D0B3F52E
:101DE000007F43D0F8BD2B4BDA8C2B4B1B889A42DB
:101DF0004DD1284B1A8D284B5B889A4247D1274DED
:101E00002946A81DFFF730FFA5F11604002305F8A9
:101E1000023C022305F8013C05F10A060622294688
:101E2000304600F0EFFD1E4F06223946284600F0EE
:101E3000E9FD06223946A01800F0E4FD06223146ED
:101E4000204600F0DFFDEB882B822B896B82124B42
:101E50001A88EA805B882B81082305F80A3C062350
:101E600005F8093C2A220A4B1A80F8BD094BDA8C86
:101E7000094B1B889A420AD1064B1A8D064B5B8888
:101E80009A4204D1054801460630FFF7EDFEF8BD41
:101E900030010020B0210020AC210020C62100200C
:101EA000B000002038B54E4BD88B82B24FF6FF738E
:101EB0009A420BD14A4B1C8C4FF6FF739C4205D1C2
:101EC00006224849464800F09DFD79E0464B1B88B4
:101ED000464C248853401C4209D1414B1A8C95B280
:101EE000414B5B88414C64886B401C4206D0404BA0
:101EF000404A1088188052885A8002E03C4B188073
:101F00005A8000223C4B1A7016E03C4C5A001A448E
:101F100090002118364A1588225A954209D1344A30
:101F2000548803EB430082003448024452889442B0
:101F300006D00133304A13702F4B1B78072BE4D99E
:101F4000082B38D1264C0622FF21204600F0D0FD78
:101F50000622002104F1200000F0CAFD284D0622CF
:101F60002946A01800F04EFD0622294604F116006D
:101F700000F048FD1E4B1A88E2845B8823851A4BCB
:101F80001A88A2835B88E38300232375012262758C
:101F9000A373E2730822227463740623A3740423D8
:101FA000E3742273062363733634164B1C602A22B3
:101FB000154B1A8038BD06220431094800F022FD75
:101FC000124C06220E49204600F01CFD0823A37186
:101FD0000023E3710C4A13880E33138038BD00BF11
:101FE000B0210020B0440008AC210020A82100202E
:101FF0001C01002078210020B6000020B80000203D
:10200000B00000204001002030010020B621002057
:102010000B4AD36823F48063D360002300E00133CC
:1020200040F665529342FAD9054AD36843F4806377
:10203000D360002300E00133B3F5E37FFBD97047A1
:10204000000C0140124B5A6822F440725A605A68E0
:1020500042F480625A609B6813F4806F01D00120C3
:1020600000E000200A4B5A6842F440725A605A68F5
:1020700042F480625A60002300E00133B3F5526FEE
:10208000FBD3002300E001330D2BFCD9704700BFC8
:10209000000C01400B4AD36823F48063D360002313
:1020A00000E0013340F275229342FAD9054AD36821
:1020B00043F48063D360002300E001330D2BFCD98F
:1020C000704700BF000C01400D4AD36823F48063C1
:1020D000D360002300E001330D2BFCD9084AD368FC
:1020E00043F48063D360002300E0013340F27522A3
:1020F0009342FAD9002300E001330D2BFCD970473D
:10210000000C01401C4AD36823F48063D360002391
:1021100000E001330D2BFCD9174AD36843F48063E8
:10212000D360002300E00133372BFCD9124B5A68EF
:1021300022F440725A605A6842F480625A609B6886
:1021400013F4806F01D0012000E00020002300E0A4
:102150000133B3F58C7FFBD3074B5A6842F44072CE
:102160005A605A6842F480625A60002300E00133EA
:102170000D2BFCD9704700BF000C014038B5054657
:1021800000240BE045FA04F313F0010F02D0FFF72F
:102190009BFF01E0FFF77EFF0134E4B2072CF1D989
:1021A00038BD00BF38B50024254606E0FFF7AAFF7A
:1021B000A0400544EDB20134E4B2072CF6D928461C
:1021C00038BD00BF10B584B000240194FFF720FF94
:1021D000FFF738FFCC20FFF7D1FF4420FFF7CEFFF9
:1021E000234600E00133114A9342FBD9FFF710FF69
:1021F000FFF728FFCC20FFF7C1FFBE20FFF7BEFF8F
:10220000002407E0FFF7CEFF04AB234403F80C0CD7
:102210000134E4B2082CF5D99DF805009DF804308E
:1022200003EB002080B204B010BD00BFD91B5000EA
:10223000704700BF10B4C1B2040A0023184607E07B
:1022400001229A40224000EB0210C0B20133DBB2FF
:10225000022BF5D9002308E01C1D0122A2400A40F0
:1022600000EB2210C0B20133DBB2032BF4D910BC57
:10227000704700BF10F0010F01D1002301E040F2D0
:10228000A32300F0020292B212B103F2E2439BB226
:1022900000F0040292B212B103F6C4139BB200F034
:1022A000080080B218B103F59C5308339BB218465E
:1022B000704700BF334B9A6942F008029A619A69ED
:1022C00042F001029A61304A516821F04C4121F4F8
:1022D0004C015160516841F0084141F400015160E6
:1022E000516841F0885141F488115160DA6942F433
:1022F0008042DA61A3F5EC331A8892B222F04002F0
:1023000092B21A801A88C2F30E021A801A8892B208
:1023100022F0020292B21A801A8892B222F00102CE
:1023200092B21A801A8892B222F4006292B21A8093
:102330001A8892B242F400721A801A8892B242F459
:1023400080721A801A8892B242F008021A801A88A3
:1023500092B242F010021A801A8892B242F0200221
:102360001A801A8892B222F0800292B21A801A88D9
:1023700092B242F004021A801A8892B242F04002ED
:102380001A80704700100240000C0140054B1B8969
:1023900003F002039BB2002BF8D080B2014B98816E
:1023A000704700BF00380040044B1B8913F0010F39
:1023B000FAD0024B9889C0B2704700BF0038004085
:1023C00008B5FFF7E3FF002300E00133B3F57A7FA0
:1023D000FBDBFFF7E9FF08BD10B5104AD36823F413
:1023E0008053D3604CB204F01F031843FFF7E8FF9B
:1023F000002C02DAFF20FFF7E3FFFF20FFF7E0FFEA
:10240000074B1B8903F080039BB2002BF8D1034AD2
:10241000D36843F48053D36010BD00BF000C01406B
:102420000038004010B514460C4AD36823F480539A
:10243000D36001F01F010843FFF7C2FF2046FFF7FA
:10244000BFFF074B1B8903F080039BB2002BF8D121
:10245000024AD36843F48053D36010BD000C01409E
:102460000038004000B583B0154AD36823F4805388
:10247000D360FF20FFF7A4FF124B1B8903F08003FA
:102480009BB2002BF8D10E4AD36843F48053D3603B
:1024900000230D4A1370019302E0019B0133019365
:1024A000019A44F61F639A42F7D9002300E00133F2
:1024B00041F287329342FADD03B05DF804FB00BFBE
:1024C000000C0140003800402001002000F01F03F4
:1024D0001A2B14DC10B5C0F34114094B1B78DBB286
:1024E0009C420BD003221F21A020FFF79BFF224616
:1024F0001F218020FFF796FF014B1C7010BD704715
:102500002001002010B50446FFF7E0FF214600201F
:10251000FFF762FF10BD00BF38B50446FFF7D6FFD6
:1025200021460020FFF758FF0546611CC9B2002074
:10253000FFF752FF45EA002080B238BD38B50446A7
:102540000D46FFF7C3FF2A4621464020FFF76AFFEA
:1025500038BD00BF38B504460D46FFF7B7FFEAB2F5
:1025600021464020FFF75EFF611C2A0AC9B24020C5
:10257000FFF758FF38BD00BF38B504460D46FFF7DA
:10258000A5FF2A462146A020FFF74CFF38BD00BF1B
:1025900038B504460D46FFF799FF2A4621468020AC
:1025A000FFF740FF38BD00BFF8B506460D46104A9C
:1025B000D36823F48053D3603A20FFF701FF06E08D
:1025C000771CFF20FFF7FCFE307025463E466B1E51
:1025D0009CB2002DF4D1074B1B8903F080039BB202
:1025E000002BF8D1024AD36843F48053D360F8BD7E
:1025F000000C014000380040F8B506460D46104A70
:10260000D36823F48053D3607A20FFF7D9FE05E026
:10261000771C3078FFF7D4FE25463E466B1E9CB2F1
:10262000002DF5D1074B1B8903F080039BB2002BD3
:10263000F8D1034AD36843F48053D360F8BD00BF98
:10264000000C01400038004010B50C460146D42073
:10265000FFF774FF2146D620FFF77CFFEA20FFF743
:1026600051FF10F0010FF9D110BD00BF38B504467D
:10267000FFF720FE384B1B8903F080039BB2002B31
:10268000F8D1364AD36843F48053D360002300E086
:10269000013341F287329342FADDFFF7E3FE002176
:1026A0000820FFF757FF0820FFF736FF00210C2016
:1026B000FFF750FF41F6FF110A20FFF74BFF0025FF
:1026C000274B1D800D21C020FFF738FF2946C12070
:1026D000FFF734FF3321C220FFF730FF40F2DC5117
:1026E000CA20FFF737FF1521C420FFF727FF12216B
:1026F000C620FFF723FF0C21C720FFF71FFF21781B
:10270000E420FFF71BFF6178E520FFF717FFA178B2
:10271000E220FFF713FFE178E320FFF70FFF2179B5
:10272000E020FFF70BFF6179E120FFF707FF4FF48F
:1027300080712846FFF788FF4FF480711020FFF763
:1027400083FF40F276411420FFF77EFF04211F2013
:10275000FFF71EFF38BD00BF00380040000C0140ED
:102760002201002038B505460C460DE01C20FFF77D
:10277000C9FE10F0020F07D080211F20FFF708FFCD
:1027800080211F20FFF7F8FE1F20FFF7BBFE10F08F
:10279000080FEBD14FF4D0510220FFF7DBFE0121EF
:1027A0000B48FFF729FF21462846FFF725FF4FF486
:1027B000D0510420FFF7CEFE04F5D05189B2062097
:1027C000FFF7C8FE08211F20FFF7E2FE38BD00BF5B
:1027D000B844000870B582B005460C463920FFF7B2
:1027E00091FE98B31B4E318889B20020FFF7B2FEEC
:1027F00002213046FFF7D8FE02210DF10600FFF757
:10280000D3FE022101A8FFF7CFFEBDF8043003F08C
:1028100080039BB25BB1BDF80630043B9BB2A34280
:1028200000D81C4621462846FFF7BEFE00E00024E3
:10283000084B198889B20139C1F30C010C20FFF74C
:1028400089FE40211E20FFF7A3FE00E00024204661
:1028500002B070BD22010020054A936943F01003C5
:102860009361A2F58032536843F4001353607047BC
:1028700000100240074A936943F008039361064B36
:102880005A6842F440725A605A6842F480625A6050
:10289000704700BF00100240000C0140002300E020
:1028A000013342F20F729342FADD10B5002413E0B7
:1028B0000B4ACC2303FB04230A4A13600220FEF7D1
:1028C00015FC094B1B8833B1FFF7ECFA064B19884E
:1028D0000648FFF747FF0134272CE9D910BD00BF98
:1028E000480100204401002030010020B0210020D8
:1028F00010B54FF4D2711648FFF76CFF154B1880D6
:1029000028B3134B9C894FF40060FEF7B5FB84425B
:102910000DD10120FEF7EAFB0E4B1B88BBB1FFF780
:10292000C1FA0C4B19880A48FFF71CFF10BD084B71
:102930009C8940F60600FEF79FFB844207D1FFF713
:102940003DFA044B198811B10148FFF70BFF10BD88
:10295000B02100203001002000B583B0FFF77CFFDC
:10296000FFF788FF1E4AD36883F40053D3601D4BE2
:10297000186800909B88ADF804306846FFF776FE33
:10298000FEF732FBFFF7FEF9FEF770F99DF8002025
:10299000154B1A709DF801205A709DF802209A700C
:1029A0009DF80320DA709DF804201A719DF8052027
:1029B0005A710E4B4AF6C0021A804FF46451598086
:1029C0000B4B1A804FF480725A800A4B4FF6FF72FD
:1029D0001A80FF225A80FFF761FFFFF789FFFAE7AD
:1029E00000100140BC440008B0000020AC210020D1
:1029F00078210020A8210020014B1868704700BFF3
:102A000028000020844641EA000313F0030349D163
:102A1000403A23D30B6803604B6843608B68836044
:102A2000CB68C3600B6903614B6943618B69836148
:102A3000CB69C3610B6A03624B6A43628B6A836230
:102A4000CB6AC3620B6B03634B6B43638B6B836318
:102A5000CB6BC36340304031403ADBD230320BD3D2
:102A60000B6803604B6843608B688360CB68C3600E
:102A700010301031103AF3D20C3205D351F8043B28
:102A800040F8043B043AF9D2043208D0D2071CBF04
:102A900011F8013B00F8013B01D30B88038060462D
:102AA000704700BF082A13D38B07B1D010F003037F
:102AB000AED0C3F10403D21ADB071CBF11F8013BEF
:102AC00000F8013BA4D331F8023B20F8023B9FE71A
:102AD000043AD9D3013A11F8013B00F8013BF9D28D
:102AE0000B7803704B7843708B7883706046704727
:102AF00070B4840746D0541E002A41D0CDB203469C
:102B000002E0621EE4B3144603F8015B9A07F8D1B1
:102B1000032C2ED9CDB245EA05250F2C45EA0545F3
:102B200019D9264603F11002103E0F2E42F8105C10
:102B300042F80C5C42F8085C42F8045C02F11002B6
:102B4000F2D8A4F1100222F00F0204F00F041032A8
:102B5000032C13440DD91E462246043A032A46F894
:102B6000045BFAD8221F22F003020432134404F05B
:102B700003042CB1C9B21C4403F8011BA342FBD1CE
:102B800070BC704714460346C2E700BF08B4F0B5F6
:102B9000002A9CB03BDB4FF40273144605460291B9
:102BA0000691ADF814304FF6FF7722AE14D0541EC4
:102BB0003346219A02A904940794ADF81670019641
:102BC00000F040FB421C18DB029B00221A701CB074
:102BD000BDE8F04001B070473346219A02A9049441
:102BE0000794ADF81670019600F02CFB431C07DB30
:102BF0001CB0BDE8F04001B070478B232B60E3E7C9
:102C00008B232B601CB0BDE8F04001B070478B22D5
:102C100002604FF0FF30EBE70CB4F0B5234B002916
:102C20009DB01D683CDB4FF402730C460290069089
:102C3000ADF814304FF6FF7723AE15D04C1E229A14
:102C4000334602A9284604940794ADF816700196FD
:102C500000F0F8FA421C19DB029B00221A701DB02A
:102C6000BDE8F04002B070473346229A02A92846D8
:102C700004940794ADF81670019600F0E3FA431C33
:102C800007DB1DB0BDE8F04002B070478B232B601E
:102C9000E2E78B232B601DB0BDE8F04002B0704727
:102CA0008B232B604FF0FF30EBE700BF28000020A4
:102CB00070B411F0FF0434D085070FD00378002BD7
:102CC0005AD09C422BD0431C05E013F8012B002A5C
:102CD0004FD0944223D09A071846F6D10E0206F43C
:102CE0007F462643036846EA064601E050F8043F63
:102CF00086EA0305A5F10132A3F1013122EA0502BA
:102D000021EA0303134313F0803FEFD0037823B984
:102D100032E010F8013F002B2ED09C42F9D170BC5C
:102D2000704784070BD00378002BF8D0431C03E0D6
:102D300002780133002AF2D099071846F8D10268C8
:102D4000A2F1013323EA020313F0803F08D150F8C7
:102D5000042FA2F1013323EA020313F0803FF6D0DF
:102D60000378002BDBD010F8013F002BFBD170BCA7
:102D70007047104670BC7047184670BC704700BF63
:102D800080EA0102844612F0030F4FD111F0030FC5
:102D900032D14DF8044D11F0040F51F8043B0BD023
:102DA000A3F101329A4312F0803F04BF4CF8043B78
:102DB00051F8043B16D100BF51F8044BA3F1013286
:102DC0009A4312F0803FA4F101320BD14CF8043B3E
:102DD000A24312F0803F04BF51F8043B4CF8044B6F
:102DE000EAD023460CF8013B13F0FF0F4FEA3323E0
:102DF000F8D15DF8044B704711F0010F06D011F8BF
:102E0000012B0CF8012B002A08BF704711F0020FAC
:102E1000BFD031F8022B12F0FF0F16BF2CF8022B97
:102E20008CF8002012F47F4FB3D1704711F8012BBA
:102E30000CF8012B002AF9D1704700BF20F00301E4
:102E400010F00300C0F1000051F8043B00F1040C45
:102E50004FEACC0C6FF000021CBF22FA0CF21343B5
:102E60004FF0010C4CEA0C2C4CEA0C4CA3EB0C027E
:102E700022EA030212EACC1204BF51F8043B0430E8
:102E8000F4D0C2F1000102EA0102B2FA82F2C2F108
:102E90001F0200EBD2007047002A3FD040EA010336
:102EA00013F00303F0B425D1032A23D904680D6875
:102EB000AC421FD1043A33D0A4F1013525EA040411
:102EC00014F0803F2FD1071D0D1D0DE057F8043B76
:102ED0000E68A3F10134B34224EA03040AD1043A90
:102EE0001ED014F0803F21D1032A2946384605F12F
:102EF0000405EBD803780C78013A9C420BD17AB1E7
:102F000014B915E062B173B110F8013F11F8014F27
:102F1000013AA342F6D0181BF0BC70471046704728
:102F20001046F0BC70471846F0BC70470020F3E72D
:102F30002046F1E740EA01039B0770B42BD1032A36
:102F400029D90C460346214654F8046BA6F10135F5
:102F500025EA060515F0803F06D1043A032A43F816
:102F6000046B2146EFD8A2B10C78013A1C700131F4
:102F700001333CB16AB111F8014B013A03F8014B3E
:102F8000002CF7D12AB11A44002103F8011B9A4200
:102F9000FBD170BC70470346E5E700BF71B138B59F
:102FA00003460C46002501E00546431C1846214611
:102FB000FFF77EFE0028F7D1284638BDFFF778BE20
:102FC00070B5CD1C25F0030508350C2D38BF0C2538
:102FD000002D06463BDBA94239D827490A6852B181
:102FE00013685B1B04D436E023685B1B1AD52246AA
:102FF0005468002CF8D149681F4C002936D0294666
:10300000304600F02BFC431C21D0C41C24F00304E8
:10301000A04205D0211A304600F020FC013016D025
:10302000256004E00B2B0DD923601C44256004F1BE
:103030000B0020F00700231DC31A02D05A42E250B1
:1030400070BD70BD94420ED063685360EFE70C23EF
:103050003360002070BD0B2B03D8144653680B60FF
:10306000E5E71446E0E713461446F8E7304600F07B
:10307000F5FB6060C3E700BF240100202DE9F84F95
:103080008E680C469E421F46904612D88B8913F4D8
:10309000906F10D1354620682A46414600F036FC34
:1030A000A36822689E1B1544A66025600020BDE829
:1030B000F88F1E46EEE74D692268096905EB450564
:1030C000C1EB020A814605EBD5750AF101006D10CE
:1030D0003844A8422A4684BF05462A465B0510D5D7
:1030E00011464846FFF76CFF8346F8B15246216906
:1030F000FFF788FCA38923F4906343F08003A38146
:1031000004E0484600F0ACFC834658B1CAEB050326
:103110000BEB0A0065613E46C4F810B02060A36066
:103120003D46B9E72169484600F054FC0C23C9F834
:103130000030A3894FF0FF3043F04003A381BDE886
:10314000F88F00BF2DE9F04F936883B09046002BB5
:1031500072D04FF000090D464C4683461668086849
:103160008B68002C45D09C421F469A4646D3AB89BB
:1031700013F4906F2DD06F69296907EB4707C1EBF6
:10318000000A07EBD777601C7F105044B8423A46DC
:1031900084BF07463A465B0533D511465846FFF7CC
:1031A0000FFF002837D0524629690190FFF72AFC0B
:1031B000AA89019B22F4906242F08002AA81CAEBA4
:1031C000070203EB0A006F61A24627462B612860C5
:1031D000AA605246494600F099FBD8F80820AB682F
:1031E0002868DB1B5044141BAB602860C8F80840FB
:1031F00014B3D6F8009074680836B2E72746A246A2
:10320000E7E7584600F02CFC03460028D7D129698F
:10321000584600F0DFFB0C23CBF80030AB890022CE
:1032200043F040034FF0FF30AB81C8F80820C8F8E6
:10323000042003B0BDE8F08F0020C8F8040003B0FC
:10324000BDE8F08F2DE9F04F0F4689899DB00C063F
:1032500092460393804603D53B69002B00F0F7802C
:1032600030238DF82A309AF80030002120227F4D3B
:10327000DFF8FC9109918DF82920002B00F08C805B
:10328000252B544603D117E0252B00F08E8014F82F
:10329000013F002BF8D1B4EB0A0B7DD052465B46C0
:1032A00039464046FFF7EAFE013075D0099B227887
:1032B0005B440993002A6FD000224FF0FF31631C5A
:1032C0000492079206928DF853201A9205910124D8
:1032D00005E0049A401B04FA00F0104304901978AA
:1032E000052262489A4600F0CBFA0AF10103002851
:1032F000EFD1049BD80644BF20228DF85320190734
:103300009AF8001044BF2B228DF853202A296FD041
:10331000A1F13002092A0BD8079B1AF8011F03EB11
:10332000830302EB4303A1F13002092AF5D9079385
:103330002E2945D003224E4800F0A2FA50B104993C
:10334000C9EB0000402202FA00F041EA00030AF152
:10335000010A04939AF800300622194645488DF870
:1033600028300AF1010A00F08BFA002865D0424BA0
:10337000FBB103AB00933A46404B04A94046AFF380
:1033800000800646721C07D0099B334409939AF8C3
:103390000030002B7FF474AFBB895B0654BF0998E3
:1033A0004FF0FF301DB0BDE8F08FB4EB0A0B83D0B7
:1033B00074E7039B073323F0070308330393E3E722
:1033C0009AF801102A291FD0A1F130020023092AFE
:1033D0000AF1010A0593ADD81AF8011F03EB830324
:1033E00002EB4303A1F13002092AF5D90593A1E7C5
:1033F000039A116804320029039218DB07919AF8A6
:1034000001100AF1010A93E7039B0AF102001A680E
:103410000433002A0393B8BF4FF0FF330592AEBFC9
:103420009AF802109AF802100593824682E7494200
:1034300043F0020307910493E1E703AB00933A469C
:103440000E4B04A9404600F0B5F806469AE7402125
:10345000FFF7B6FD3860386110B140237B61FFE6AD
:103460000C23C8F800304FF0FF309BE728450008D8
:103470003045000834450008000000007D30000899
:103480002DE9F0470D690C46896891468D422A4620
:10349000B8BF0A46C9F8002094F8431006461F46F4
:1034A000DDF8208011B10132C9F8002023689906A7
:1034B0005DD5D9F800200232C9F80020236813F046
:1034C000060F19461DD1E1688A1A002AD8BF19468D
:1034D00017DD04F1190A002505E0E368D9F800209A
:1034E0009B1AAB420CDD0123524639463046C04799
:1034F000013005F10105F0D14FF0FF30BDE8F08754
:10350000216894F84330003318BF01238A060AD596
:10351000E218302182F8431094F845105A1C2244D6
:1035200082F84310023304F1430239463046C04763
:103530000130E1D0236803F00603042B29D0A368EF
:1035400022699342C8BF4FF000092FDD9B1A9944AE
:103550001A34002501E04D4528D001232246394682
:103560003046C047013005F10105F4D1C4E713F03E
:10357000060F08D1E168D9F800208A1A002AD8BFBE
:103580001946A6DCBDE794F84330003318BF012389
:10359000C9E7D9F80000E168A3682269091A9342D3
:1035A00021EAE179D2DCB9F1000FD1D10020BDE8E8
:1035B000F08700BF2DE9F0430C46097E85B06E29E7
:1035C00006461746984604F1430C0C985AD01AD870
:1035D000632900F0128100F2D68000295CD05829BE
:1035E00040F0F58084F84510226803681506DFF87E
:1035F00064E203F104011ED4550653BF1B68016049
:103600001B88016019E0732900F0CF807ED86F29F4
:1036100000F0E480702940F0DA80226842F0200255
:103620002260782384F8453003681506DFF828E225
:1036300003F10401E0D51B680160D00744BF42F0EC
:1036400020022260002B40F090802268102122F09E
:1036500020022260002284F8432060680028A060D5
:10366000C0F28880226822F004022260002B62D11E
:10367000002840F08180654608296AD0C5EB0C031C
:1036800023610CE023681A0640F1D5800368626963
:10369000191D01601B681A60654600232361CDF87F
:1036A00000803B4603AA21463046FFF7E9FE013081
:1036B00021D02A46236939463046C04701301AD006
:1036C0002368039813F0020FE36819D01A1A002A2E
:1036D00016DD04F11909002504E0E36803981A1ABD
:1036E000AA420DDD01234A4639463046C047013023
:1036F00005F10105F1D14FF0FF3005B0BDE8F083D1
:103700009842B8BF184605B0BDE8F083752965D06A
:1037100078295CD1226884E761682D200029C3F1F3
:103720000003A16084F8430021DB22F00402DFF8EB
:1037300024E122600A216546B3FBF1F201FB12335A
:103740001EF80300134605F8010D002AF4D10829DC
:1037500094D12368D90791D5626823699A428DDC98
:10376000302305F8013C013D88E7102172E7DFF8BE
:10377000E4E00A21002BDED19EF8003004F142057E
:1037800084F8423078E7642901D069291FD1226882
:103790000368150603F104013AD51B680160002B8C
:1037A000BADBDFF8B0E00A2157E703686268191D49
:1037B00001601D680021284600F062F8002846D00C
:1037C000401B60602061002384F8433067E70123D9
:1037D00084F84210236104F14205F4E723681A06D5
:1037E0001ED503681A1D1B680260227EDFF864E0A4
:1037F0006F2A14BF0A2108212CE703680122191D32
:103800001B6804F14205016084F842302261DAE766
:10381000550653BF1B680160B3F900300160BEE775
:1038200013F0400F036803F1040215BF02601B6828
:103830001B880260D9E713F0400F0368626903F147
:10384000040101601B6814BF1A801A6024E76068D5
:10385000B8E700BF3C4500085045000838B5074CA4
:103860000023054608462360FCF72CFD431C00D0CE
:1038700038BD2368002BFBD02B6038BD2C01002005
:10388000830770B4CDB23DD0531E02B30278AA4272
:103890001ED0421C04E0D3B10478013BAC4217D0E7
:1038A00012F0030F104602F10102F4D1032B11D8DC
:1038B00053B30278AA420BD00344421C02E00178C1
:1038C000A94205D09342104602F10102F7D100202F
:1038D00070BC704704460E0206F47F462E4346EA4B
:1038E0000646226820467240A2F1013121EA020216
:1038F00012F0803F04F10404DBD1043B032B20468B
:10390000EFD8D5E71346D1E71846E1E78842F0B58E
:103910000DD98B1898420AD28118002A51D09A1AD0
:1039200013F8014D934201F8014DF9D1F0BD0F2A72
:1039300048D941EA00039B0746D1154600F110041F
:1039400001F1100353F8106C103D44F8106C53F85B
:103950000C6C0F2D44F80C6C53F8086C04F1100437
:1039600044F8186C53F8046C03F1100344F8146C19
:10397000E8D8A2F1100323F00F0302F00F0E10336A
:10398000BEF1030F1944034421D90E4674461D1F8E
:1039900056F8047B043C032C45F8047FF8D8AEF1BC
:1039A000040424F0030404342344214402F00302F9
:1039B00062B1013B0A4411F8014B8A4203F8014FFE
:1039C000F9D1F0BD0346F3E70346F2E7F0BD7246D6
:1039D000EEE700BF30B481B151F8043C0439002B4C
:1039E000B8BFC9181D4B1A682AB18A420AD908689B
:1039F0000C18A24225D04A60196030BC70478B4237
:103A000003D81A465368002BF9D1146815198D4252
:103A10000CD007D808680C189C4218D030BC4B60FA
:103A2000516070470C23036030BC704709680C4438
:103A3000111999421460E0D10ACB0C441460536010
:103A4000DBE714685268204481E80500D4E71C686D
:103A50005B68204481E809005160CEE72401002022
:103A6000F9B1F8B506461546B2B10C4600F01CF89F
:103A7000854201D82046F8BD29463046FFF7A0FA16
:103A8000074668B12A462146FEF7BCFF304621466C
:103A9000FFF7A0FF3846F8BDFFF79CFF2846F8BDAA
:103AA000F8BD1146FFF78CBA51F8040C0028BEBFD0
:103AB000091851F8043CC01804387047436F6E74FD
:103AC000656E742D747970653A20746578742F7002
:103AD0006C61696E0D0A0D0A000000005265666592
:103AE0007265723A000000002E7368746D6C0000FD
:103AF0002E68746D6C0000002E706E670000000070
:103B0000436F6E74656E742D747970653A20696DBB
:103B10006167652F6A7065670D0A0D0A0000000075
:103B2000436F6E74656E742D747970653A206170A0
:103B3000706C69636174696F6E2F6F637465742D47
:103B400073747265616D0D0A0D0A00002E67696657
:103B5000000000002E637373000000002F34303427
:103B60002E68746D6C000000436F6E74656E742D6A
:103B7000747970653A20746578742F68746D6C0D73
:103B80000A0D0A00436F6E74656E742D747970654A
:103B90003A20696D6167652F706E670D0A0D0A0026
:103BA000436F6E74656E742D747970653A20746518
:103BB00078742F6373730D0A0D0A0000436F6E74DF
:103BC000656E742D747970653A20696D6167652F33
:103BD0006769660D0A0D0A00485454502F312E3083
:103BE00020343034204E6F7420666F756E640D0A79
:103BF0005365727665723A207549502F312E302008
:103C0000687474703A2F2F7777772E736963732EE9
:103C100073652F7E6164616D2F7569702F0D0A4386
:103C20006F6E6E656374696F6E3A20636C6F736557
:103C30000D0A0000485454502F312E3020323030BD
:103C4000204F4B0D0A5365727665723A20754950C4
:103C50002F312E3020687474703A2F2F7777772E9B
:103C6000736963732E73652F7E6164616D2F75694F
:103C7000702F0D0A436F6E6E656374696F6E3A2024
:103C8000636C6F73650D0A002E6A70670000000098
:103C900047455420000000002F696E6465782E6847
:103CA000746D6C00256325642E25640A00000000F5
:103CB000726F6F6D54656D706572617475726500B9
:103CC000B03C0008F104000800000000C4410008F6
:103CD000D0410008DE020000000000002F7374795C
:103CE0006C652E637373006831200A7B0A20207490
:103CF0006578742D616C69676E3A2063656E7465D2
:103D0000723B0A2020666F6E742D73697A653A31B2
:103D10003470743B0A2020666F6E742D66616D6985
:103D20006C793A617269616C2C68656C766574694E
:103D300063613B0A2020666F6E742D776569676842
:103D4000743A626F6C643B0A202070616464696E2F
:103D5000673A313070783B200A7D0A0A626F6479D5
:103D60000A7B0A0A20206261636B67726F756E645A
:103D70002D636F6C6F723A20236666666565633BE0
:103D80000A2020636F6C6F723A626C61636B3B0A4E
:103D90000A2020666F6E742D73697A653A387074E4
:103DA0003B0A2020666F6E742D66616D696C793AEE
:103DB000617269616C2C68656C7665746963613BDE
:103DC0000A7D0A0A2E6D656E750A7B0A20206D61D8
:103DD0007267696E3A203470783B0A2020776964F4
:103DE00074683A3630253B0A0A20207061646469A1
:103DF0006E673A3270783B0A090A2020626F72645B
:103E000065723A20736F6C6964203170783B0A20C8
:103E1000206261636B67726F756E642D636F6C6F88
:103E2000723A20236666666364323B0A202074651A
:103E300078742D616C69676E3A6C6566743B0A2014
:103E4000200A2020666F6E742D73697A653A397086
:103E5000743B0A2020666F6E742D66616D696C7903
:103E60003A617269616C2C68656C7665746963612E
:103E70003B20200A7D0A0A6469762E6D656E7562A4
:103E80006F780A7B0A202077696474683A2032359B
:103E9000253B0A2020626F726465723A20303B0A2B
:103EA0002020666C6F61743A206C6566743B0A74FE
:103EB0006578742D616C69676E3A2063656E746510
:103EC000723B0A7D0A0A2E636F6E74656E74626CB3
:103ED0006F636B0A7B20200A20206D617267696E18
:103EE0003A203470783B0A202077696474683A3647
:103EF00030253B0A0A202070616464696E673A329B
:103F000070783B0A0A2020626F726465723A203131
:103F1000707820646F747465643B0A20206261636A
:103F20006B67726F756E642D636F6C6F723A20777A
:103F3000686974653B0A0A2020666F6E742D736988
:103F40007A653A3870743B0A2020666F6E742D666D
:103F5000616D696C793A617269616C2C68656C7627
:103F600065746963613B20200A0A7D0A0A702E6924
:103F70006E74726F0A7B0A20206D617267696E2D04
:103F80006C6566743A323070783B0A20206D61723D
:103F900067696E2D72696768743A323070783B0ACF
:103FA0000A2020666F6E742D73697A653A3130701D
:103FB000743B0A2F2A2020666F6E742D776569671F
:103FC00068743A626F6C643B202A2F0A2020666F67
:103FD0006E742D66616D696C793A617269616C2CE1
:103FE00068656C7665746963613B20200A7D0A0A06
:103FF000702E636C696E6B0A7B0A2020666F6E748C
:104000002D73697A653A313270743B0A2020666FED
:104010006E742D66616D696C793A636F757269654E
:10402000722C6D6F6E6F73706163653B20200A2088
:1040300020746578742D616C69676E3A63656E747F
:1040400065723B0A7D0A0A702E636C696E6B390AD1
:104050007B0A2020666F6E742D73697A653A397019
:10406000743B0A2020666F6E742D66616D696C79F1
:104070003A636F75726965722C6D6F6E6F737061E4
:1040800063653B20200A2020746578742D616C697B
:10409000676E3A63656E7465723B0A7D0A0A0A7040
:1040A0000A7B0A202070616464696E672D6C656606
:1040B000743A313070783B0A7D0A0A702E72696753
:1040C00068740A7B0A2020746578742D616C6967B6
:1040D0006E3A72696768743B200A7D0A0A00000024
:1040E0002F746573745F66756E6374696F6E2E737B
:1040F00068746D6C003C68746D6C3E0A093C6865C0
:1041000061643E0A09093C7469746C653E526F6FC4
:104110006D2054656D70657261747572653C2F74A5
:1041200069746C653E0A093C2F686561643E0A0942
:104130003C626F64793E0A09093C703ED2E5ECEFBF
:10414000E5F0E0F2F3F0E020E220EAEEECEDE0F260
:10415000E53A3C2F703E0A0909252120726F6F6DE8
:1041600054656D70657261747572650A09093C70F9
:104170003EE3F0E0E4F3F1EEE220EFEE20F6E5EBD3
:10418000FCF1E8FE3C2F703E0A093C2F626F647917
:104190003E0A3C2F68746D6C3E0A0000C83C000863
:1041A000DC3C0008E73C0008F703000000000000CA
:1041B0009C410008E0400008F5400008A60000000F
:1041C000000000002F696E6465782E68746D6C00C5
:1041D0003C21444F43545950452048544D4C2050A5
:1041E00055424C494320222D2F2F5733432F2F4424
:1041F00054442048544D4C20342E303120547261A8
:104200006E736974696F6E616C2F2F454E22202288
:10421000687474703A2F2F7777772E77332E6F72FA
:10422000672F54522F68746D6C342F6C6F6F7365E9
:104230002E647464223E0A3C68746D6C3E0A202031
:104240003C686561643E0A202020203C7469746CDF
:10425000653E57656C636F6D6520746F207468658B
:1042600020754950207765622073657276657221EA
:104270003C2F7469746C653E0A202020203C6C69D8
:104280006E6B2072656C3D227374796C6573686522
:1042900065742220747970653D22746578742F638B
:1042A00073732220687265663D227374796C652E83
:1042B000637373223E20200A20203C2F68656164CE
:1042C0003E0A20203C626F6479206267636F6C6FE6
:1042D000723D222366666665656322207465787484
:1042E0003D22626C61636B223E0A0A20203C6469B5
:1042F0007620636C6173733D226D656E75223E0A94
:1043000020203C64697620636C6173733D226D6587
:104310006E75626F78223E3C6120687265663D2250
:104320002F223E46726F6E7420706167653C2F616C
:104330003E3C2F6469763E0A20203C646976206307
:104340006C6173733D226D656E75626F78223E3CC1
:104350006120687265663D22746573745F66756E70
:104360006374696F6E2E7368746D6C223E526F6F4A
:104370006D2054656D70657261747572653C2F6156
:104380003E3C2F6469763E0A20203C62723E0A2041
:10439000203C2F6469763E0A0A20203C646976201E
:1043A000636C6173733D22636F6E74656E74626CCF
:1043B0006F636B223E0A20203C703E0A2020546826
:1043C000657365207765622070616765732061722F
:1043D0006520736572766564206279206120736D53
:1043E000616C6C20776562207365727665722072ED
:1043F000756E6E696E67206F6E20746F70206F66C9
:104400000A2020746865203C6120687265663D2240
:10441000687474703A2F2F7777772E736963732ED1
:1044200073652F7E6164616D2F7569702F223E75F3
:10443000495020656D626564646564205443502F63
:1044400049500A2020737461636B3C2F613E2E0A31
:1044500020203C2F703E0A20203C703E0A20204342
:104460006C69636B206F6E20746865206C696E6B7D
:10447000732061626F766520666F722077656220B7
:10448000736572766572207374617469737469639D
:10449000732E0A20203C2F703E0A0A20203C2F62F7
:1044A0006F64793E0A3C2F68746D6C3E0A00000010
:1044B000FFFFFFFFFFFF00000000000054555810F1
:1044C0000029000043000000000000000000000080
:1044D00000000000000000000000000000000000DC
:1044E00000000000000000000000000000000000CC
:1044F00000000000000000000000000000000000BC
:1045000000000000000000000000000000000000AB
:10451000000000000000000000000000000000009B
:104520000000000000000000232D302B20000000C0
:10453000686C4C0065666745464700003031323391
:10454000343536373839414243444546000000008F
:1045500030313233343536373839616263646566F9
:044560000000000057
:10456400785634129800002000000000000000007B
:1045740000000000010203040607080900A24A041F
:10458400C03C0008000000002C00002000000000D7
:1045940008450008E8440008C8440008000000007A
:1045A400000000000000000000000000C4440008F7
:1045B40000000000000000000000000000000000F7
:1045C40000000000000000000000000000000000E7
:1045D40000000000000000000000000000000000D7
:1045E4000000000000000000000000003254769833
:040000050800010DE1
:00000001FF
