:020000040800F2
:100000004029002099010008A1010008A30100086F
:10001000A5010008A7010008A901000800000000D0
:10002000000000000000000000000000AB0100081C
:10003000AD01000800000000AF010008B101000898
:10004000B3010008B3010008B3010008B3010008C0
:10005000B3010008B3010008B3010008B3010008B0
:10006000B3010008B3010008B3010008B3010008A0
:10007000B3010008B3010008B3010008B301000890
:10008000B3010008B3010008B3010008B301000880
:10009000B3010008B3010008B3010008B301000870
:1000A000B3010008B3010008B3010008B301000860
:1000B000B3010008B3010008B3010008B301000850
:1000C000B3010008B3010008B3010008B301000840
:1000D000B3010008B3010008B3010008B301000830
:1000E000B3010008B3010008B301000800F002F8F2
:1000F00000F042F80AA090E8000C82448344AAF180
:100100000107DA4501D100F037F8AFF2090EBAE87D
:100110000F0013F0010F18BFFB1A43F0010318473B
:10012000D4400000F4400000103A24BF78C878C1E1
:10013000FAD8520724BF30C830C144BF04680C60ED
:10014000704700000023002400250026103A28BF35
:1001500078C1FBD8520728BF30C148BF0B60704739
:10016000642900F07F80632900F0FB820020704743
:100170001FB51FBD10B510BD00F07AFB1146FFF78B
:10018000F7FF01F05DFC00F098FB03B4FFF7F2FF0E
:1001900003BC00F0A1FB0000094880470948004764
:1001A000FEE7FEE7FEE7FEE7FEE7FEE7FEE7FEE727
:1001B000FEE7FEE704480549054A064B7047000084
:1001C000390B0008ED0000084023002040290020E2
:1001D00040250020402500200FB47CB50C0009AA62
:1001E000009001D02044401E084B7B44694601909A
:1001F000089800F08CFA05461CB10020694600F012
:1002000099FA28467CBC5DF814FB000051050000FB
:1002100070B50C460546012A05D02878800600D521
:10022000EA69002302E0012305E05B1C934202D24D
:10023000E05C0028F9D1A869E618C01AA861286A0C
:10024000184428622846AFF3008004E0D5E9012174
:1002500014F8010B9047B442F8D32846AFF300805E
:1002600070BD00002DE9F041064600241068752994
:10027000314616A510D0AFF30080002802DA4042C4
:1002800013A507E031688A0701D512A502E04907E6
:1002900004D511A5012401E0AFF3008000210A225A
:1002A00006F1240709E0B0FBF2FCB0FBF2F302FB1D
:1002B0001C00303078541846491C0028F3D12346DE
:1002C0002A463046BDE8F04100F0C2B90000000007
:1002D0002D0000002B000000200000002DE9F05F41
:1002E000894604464FF0000ADFF824B1FB44C0F809
:1002F00020A02046E168884700287DD0252806D028
:10030000D4E901219047206A401C2062F1E70025D2
:100310005F462046E16888472028064607DB312EE5
:1003200005D2B81910F8200C08B10543F1E7A80769
:1003300001D525F00405C4F81CA00027C4F818A0B6
:100340002A2E09D0304600F027FC38B304EB87088A
:10035000303EC8F8186019E059F8041B204604EB39
:1003600087029161E1688847012F064618D1E0694C
:10037000002820DA25F020051DE0D8F8180000EB51
:10038000800006EB40003038C8F818002046E168CD
:100390008847064600F000FC0028EED1012F0AD065
:1003A0002E2E08D12046E16888477F1C0646022F82
:1003B00045F02005C4DBA069002803DA404245F07F
:1003C0000105A061E80701D025F01005A6B1A6F14E
:1003D0004100192802D8203645F400654A463146C6
:1003E000204625604D46FFF7BBFE60B1012807D0CF
:1003F000ED1D25F0070000E007E000F1080978E7AF
:1004000005F1040975E730467AE7206ABDE8F09FF8
:10041000E23E0000401ECAB210F8011F8A4202D01C
:100420000029F9D10020704740EA0103024630B5A7
:100430009B0710D14FF0013400E008C208C91D1B12
:100440009D4315EAC41FF8D013F0FF0102F8011B09
:100450000DD01B0AF8E711F8013B002B02F8013B15
:1004600005D011F8013B002B02F8013BF3D130BD60
:100470000022CBB210F8011B994200D1421E002984
:10048000F8D11046704710B5431C02E010F8011B6C
:1004900071B18107FAD14FF0013202C88C1A8C4336
:1004A00014EAC211F9D0C01A0A0603D0C01E10BD4A
:1004B000C01A10BD0A0401D0801E10BD0902FCD074
:1004C000401E10BD40EA010370B59B072ED14FF0CE
:1004D0000136042A2AD308C810C99D1B9D43121F48
:1004E00015EAC61517D0D8B2E1B2401A50EA056134
:1004F00010D198B2A1B2401A50EA05410AD123F0B6
:100500007F4024F07F41401A50EA052102D1180EA5
:10051000A0EB146070BDA342DBD018BA21BA8842A8
:1005200001D9012070BD4FF0FF3070BD0AB9002025
:1005300070BD10F8013B11F8014B63B1A3420AD121
:10054000521E08D010F8013B11F8014B1BB1A34219
:1005500001D1521EEDD1181B70BD032A40F230802C
:1005600010F0030C00F0158011F8013BBCF1020FF4
:10057000624498BF11F801CB00F8013B38BF11F875
:10058000013BA2F1040298BF00F801CB38BF00F88C
:10059000013B11F0030300F0F080083AC0F008803E
:1005A00051F8043B083A51F804CBA0E80810F5E7ED
:1005B000121D5CBF51F8043B40F8043BAFF30080D0
:1005C000D20724BF11F8013B11F801CB48BF11F845
:1005D000012B24BF00F8013B00F801CB48BF00F815
:1005E000012B704702F0FF0343EA032242EA024272
:1005F00000F0F7B810B5044610F0030F08BF11F073
:10060000030F40F015804FF0013E121FC0F20E8024
:1006100051F8043BA3EB0E0C2CEA030C1CEACE1C95
:1006200008BF40F8043BF0D0A1F1040102F104023C
:10063000521E08DB11F8013B002B00F8013BF7D1FB
:10064000114600F0CCF8204610BD70477047704747
:100650002DE9F0470D4699469246044600F12408DC
:100660000168880604D5E06921F01001216000E0EE
:100670000120A84201DD471B00E00027A1697A198B
:1006800002EB0900081AA0612078C00602D42046B7
:10069000AFF30080002608E0D4E901211AF8060033
:1006A0009047206A401C761C20624E45F4DB20787F
:1006B000C0060AD52046AFF3008006E0D4E9012148
:1006C00030209047206A401C2062381EA7F10107A5
:1006D000F4DC07E0D4E9012118F805009047206A0E
:1006E000401C2062281EA5F10105F3DC2046AFF373
:1006F00000802078000602D50220BDE8F0870120A6
:10070000FBE7000001694A1C02610878704700B5E8
:100710008FB0CDE901310021059105497944CDE93A
:10072000031011466846FFF7D9FD0FB000BD000069
:10073000E5FFFFFF0A6802F8010B0A607047D1E984
:1007400000239A4202D2531C0B601070704710B500
:10075000436913B1AFF3008001E0FFF759FD0120B9
:1007600010BD127800F124010A7000224A700122A3
:10077000EDE711684FF0FF32E9E710B5203AC0F01D
:100780000B80B1E81850203AA0E81850B1E8185092
:10079000A0E81850BFF4F5AF5FEA027C24BFB1E8CF
:1007A0001850A0E8185044BF18C918C0BDE8104040
:1007B0005FEA827C24BF51F8043B40F8043B08BF49
:1007C0007047D20728BF31F8023B48BF11F8012B10
:1007D00028BF20F8023B48BF00F8012B70474FF0BC
:1007E00000020429C0F0128010F0030C00F01B80FE
:1007F000CCF1040CBCF1020F18BF00F8012BA8BF0C
:1008000020F8022BA1EB0C0100F00DB85FEAC17CCF
:1008100024BF00F8012B00F8012B48BF00F8012B82
:1008200070474FF0000200B51346944696462039B3
:1008300022BFA0E80C50A0E80C50B1F12001BFF499
:10084000F7AF090728BFA0E80C5048BF0CC05DF8FF
:1008500004EB890028BF40F8042B08BF704748BF4D
:1008600020F8022B11F0804F18BF00F8012B7047C1
:10087000754600F02BF8AE4605006946534620F059
:100880000700854618B020B5FFF794FCBDE820406E
:100890004FF000064FF000074FF000084FF0000B3C
:1008A00021F00701AC46ACE8C009ACE8C009ACE8EF
:1008B000C009ACE8C0098D46704710B50446AFF3D7
:1008C00000802046BDE81040FFF75FBC004870473D
:1008D000DC2200207047000001491820ABBEFEE773
:1008E000260002000848806940F008000649886137
:1008F0000648006840F440700449086008460068F3
:1009000040F480600860704700100240040C014011
:100910000648806940F01000044988610448406836
:1009200040F4001002494860704700000010024087
:10093000001001403248806940F008003049886169
:100940000846806940F0010088612E4800682E4901
:1009500008402C490860084600682C49084329498A
:100960000860084600682A49084326490860244868
:10097000C06940F480402249C8612648008820F0C0
:100980004000244908800846008820F40040088080
:100990000846008820F0020008800846008820F001
:1009A000010008800846008820F40060088008469E
:1009B000008840F4007008800846008840F4807089
:1009C00008800846008840F0080008800846008833
:1009D00040F0100008800846008840F020000880A1
:1009E0000846008820F0800008800846008840F013
:1009F000040008800846008840F0400008807047E6
:100A000000100240040C0140FFFF333300008088D7
:100A1000000011110038004000BF0548008800F0B8
:100A200001000028F9D00248001D0088C0B27047BC
:100A30000838004000BF0549098801F0020100297B
:100A4000F9D00249091D08807047000008380040AD
:100A500010B500F001F810BD0CB500200190009019
:100A60003348006840F480303149086000BF3048A6
:100A7000006800F4003000900198401C019000983C
:100A800018B90198B0F5A06FF1D12948006800F4B9
:100A9000003010B10120009001E00020009000988B
:100AA000012843D12348006840F010002149086024
:100AB0000846006820F0030008600846006840F01F
:100AC000020008601A4840681949486008464068B2
:100AD00048600846406840F48060486008464068C6
:100AE00020F47C1048600846406840F4E8104860F4
:100AF0000846006840F08070086000BF0C4800683D
:100B000000F000700028F9D00948406820F0030088
:100B1000074948600846406840F00200486000BF4E
:100B20000348406800F00C000828F9D10CBD000013
:100B3000001002400020024010B51348006840F049
:100B400001001149086008464068104908400E49F4
:100B50004860084600680E4908400B49086008468E
:100B6000006820F4802008600846406820F4FE00F9
:100B700048604FF41F008860FFF76AFF4FF0006085
:100B80000449086010BD0000001002400000FFF89A
:100B9000FFFFF6FE08ED00E030380A2801D2012000
:100BA00070470020704730B5044613E010680578A0
:100BB000206805701068401C10602068401C206090
:100BC0001888401E1880A088401EA0808D4201D148
:100BD000022030BDA088002802DD18880028E5DC4E
:100BE000188808B90020F4E70BE010680578188829
:100BF000401E18801068401C10608D4201D10320F7
:100C0000E7E718880028F0DC0120E2E70160828035
:100C10007047F0B50B46144619461E19751E0BE0B9
:100C20004E780F7806EB0726B2B28618B0B2904223
:100C300001DA461CB0B2891CA942F1D3A9420AD1FB
:100C40000E78002707EB0626B2B28618B0B29042A3
:100C500001DA461CB0B2F0BD014691F8200006282A
:100C600021D11248007800F00100E0B1088A104A52
:100C70001268528A90420CDD088A0D4A1268528A24
:100C8000801A08820A4A48681268528A10444860EA
:100C900005E00A8A48681044486000200882012064
:100CA00081F8200070470020FCE7000024000020AD
:100CB000280000200146002001F0010212B100F2DC
:100CC000A32290B201F0020212B100F2E24290B20D
:100CD00001F0040212B100F6C41290B201F0080251
:100CE0001AB141F28832024490B2704770B50146A1
:100CF0000020CBB20C0A002207E0012595402540D8
:100D000000EB0515E8B2551CEAB2032AF5DB002218
:100D100009E0151D012606FA05F51D4000EB251515
:100D2000E8B2551CEAB2042AF3DB70BD014620226A
:100D300001F4004010B12D20024601E02B200246B4
:100D4000704700003EB50024002000900190029002
:100D500000F09AF800F0B4F8CC2000F03AF8442003
:100D600000F037F8002000E0401C11498842FBD316
:100D700000F08AF800F0A4F8CC2000F02AF8BE2099
:100D800000F027F8002505E000F014F80DF8050044
:100D9000681CC5B2092DF7DB9DF801404FF6FF70C6
:100DA00000EA04249DF80000204484B220463EBDA1
:100DB000DA1B500010B50024002306E000F01CF8F8
:100DC00098402044C4B2581CC3B2082BF6DB20461E
:100DD00010BD10B5034600220BE043FA02F000F00C
:100DE000010414B100F0B6F801E000F097F8501CCF
:100DF000C2B2082AF1DB10BD00212248006820F4AD
:100E00008060204A1060002000E0401C0E28FCD3C7
:100E10001C48006840F480601A4A1060002000E01E
:100E2000401C3828FCD317480838006820F440706C
:100E3000144A083A10601046006840F48060106060
:100E4000101D006800F4806008B1012100E000215D
:100E5000002000E0401CB0F58C7FFBD30948083827
:100E6000006840F44070074A083A10601046006875
:100E700040F480601060002000E0401C0E28FCD38D
:100E8000084670470C0C01400C48006820F4806054
:100E90000A490860002000E0401C40F66651884284
:100EA000FAD30648006840F48060044908600020D6
:100EB00000E0401CB0F5E37FFBD970470C0C01400B
:100EC00001211548006820F44070134A1060104654
:100ED000006840F480601060101D006800F48060BD
:100EE00000B100E000210C48006840F440700A4A5C
:100EF00010601046006840F480601060002000E040
:100F0000401CB0F5526FFBD3002000E0401C0E28BF
:100F1000FCD3084670470000040C01400C480068F0
:100F200020F480600A490860002000E0401C40F284
:100F300076218842FAD30648006840F4806004496C
:100F40000860002000E0401C0E28FCD37047000021
:100F50000C0C01400E48006820F480600C490860C9
:100F6000002000E0401C0E28FCD30948006840F433
:100F7000806007490860002000E0401C40F27621B4
:100F80008842FAD3002000E0401C0E28FCD37047B2
:100F90000C0C014070B504460D46204600F082F965
:100FA0002A462146A02000F011FA70BD70B5044613
:100FB0000D46204600F076F92A462146802000F0B2
:100FC00005FA70BD10B50446FFF7B4FC00BF384801
:100FD000008800F080000028F9D13648006840F40D
:100FE000805034490860002000E0401C41F2883104
:100FF0008842FADB00F072F90021082000F0ACF919
:10100000082000F065F800210C2000F0A5F941F659
:10101000FF110A2000F0A0F90020274908800D21C7
:10102000C02000F08DF90021C12000F089F93321A2
:10103000C22000F085F940F2DC51CA2000F08CF9A2
:101040001521C42000F07CF91221C62000F078F9A7
:101050000C21C72000F074F92178E42000F070F929
:101060006178E52000F06CF9A178E22000F068F9E1
:10107000E178E32000F064F92179E02000F060F9E4
:101080006179E12000F05CF94FF48071002000F0FC
:10109000C3F94FF48071102000F0BEF940F27641A0
:1010A000142000F0B9F904211F20FFF77FFF10BDC5
:1010B000083800400C0C01400200002010B5044626
:1010C000204600F0EFF82146002000F03DF810BD6A
:1010D00070B50446204600F0E5F82146002000F0F7
:1010E00033F80546601CC1B2002000F02DF845EA37
:1010F000002070BD70B504460D461148006820F40C
:1011000080500F4908603A2000F086F804E0FF2084
:1011100000F082F804F8010B281EA5F101018DB240
:10112000F5D100BF0748008800F080000028F9D101
:101130000348006840F480500149086070BD000019
:101140000C0C01400838004070B505460C461248AA
:10115000006820F480501049086004F01F0141EA43
:10116000050000F059F804F0800010B1FF2000F0F5
:1011700053F8FF2000F050F8064600BF07480088EB
:1011800000F080000028F9D10348006840F4805046
:1011900001490860304670BD0C0C01400838004021
:1011A0002DE9FC4107460C4600253920FFF786FF54
:1011B00068B318480188002000F0CEF802211548D5
:1011C000FFF798FF022101A8FFF794FF022168466C
:1011D000FFF790FFBDF8000000F0800050B1BDF8AF
:1011E0000400001F85B2A54200DD25462946384689
:1011F000FFF780FF07480088401EC0F30C06314609
:101200000C2000F0A9F840211E20FFF7CFFE284651
:10121000BDE8FC810200002010B504462046FFF71F
:1012200009FC002000E0401CB0F57A7FFBDBFFF7F3
:10123000F3FB10BD70B505460C460DE01C20FFF712
:101240003DFF00F0020038B180211F20FFF7AEFE05
:1012500080211F20FFF79EFE1F20FFF72FFF00F0C9
:1012600008000028EAD14FF4D051022000F074F8B1
:1012700001210BA000F082F82146284600F07EF8FC
:101280004FF4D051042000F067F804F5D05081B23B
:10129000062000F061F808211F20FFF787FE70BDCF
:1012A0000000000070B5054605F01F001B2811DA8C
:1012B000C5F341140848007884420BD003221F2153
:1012C000A02000F083F822461F21802000F07EF845
:1012D0000148047070BD00000000002008B51548EA
:1012E000006820F4805013490860FF20FFF794FF46
:1012F00000BF1148008800F080000028F9D10D4897
:10130000006840F480500B49086000200B490870C9
:10131000009002E00098401C009044F62061009884
:101320008842F7D3002000E0401C41F28831884217
:10133000FADB08BD0C0C014008380040000000201A
:1013400070B504460D462046FFF7ACFF2A462146FD
:10135000402000F03BF870BD70B504460D462046B5
:10136000FFF7A0FFEAB22146402000F02FF82A1232
:10137000601CC1B2402000F029F870BD70B5044671
:101380000D461048006820F480500E4908607A200D
:10139000FFF742FF03E014F8010BFFF73DFF281EA3
:1013A000A5F101018DB2F6D100BF0748008800F019
:1013B00080000028F9D10348006840F480500149BA
:1013C000086070BD0C0C01400838004070B5044640
:1013D0000D4616460E48006820F480500C490860FF
:1013E00005F01F0141EA0400FFF716FF3046FFF742
:1013F00013FF00BF0748008800F080000028F9D1E3
:101400000348006840F480500149086070BD000046
:101410000C0C01400838004070B504460D462146CA
:10142000D420FFF78DFF2946D620FFF795FF00BF98
:10143000EA20FFF743FE00F001000028F8D170BD5C
:1014400070B505462C469C2000590D490968498A0B
:10145000884205DD0A480068408AC4F8A00003E01D
:101460009C200059C4F8A00098340648A26821685E
:101470000068FFF772F82089983C80B270BD0000C8
:10148000280000201800002070B504460E460125F3
:10149000208D10B18C280ED103E000BF8C20208558
:1014A00000BF2246064904F1280000F065FB08B998
:1014B000002070BD00BF0025002020850220F8E735
:1014C000C51400082DE9FC470446FFF73BFC8046A5
:1014D00027464046FFF7EEFB05464046FFF706FC71
:1014E00006464046FFF722FC81464B4605A24FF4D4
:1014F000B7710748CDE900650068FEF76DFE80B260
:10150000BDE8FC87256325642E25640A00000000E1
:101510001800002010B50446204600F009F894F8A1
:101520009600012802D1204600F08CF810BD000082
:1015300070B504460125A08838B1FD2809D0A0F275
:10154000031018B3122870D156E000BFFD20A08010
:1015500000BF2021201D00F083FB08B9002070BDD2
:1015600000BF0422334904F15000FEF7ABFF40B145
:1015700000BF10203049087000BF0020A08001206B
:10158000EDE700BF40F20310A08000BF2021201D26
:1015900000F066FB08B90020E1E700BF94F85000B6
:1015A0002F2808D000BF10202349087000BF00205A
:1015B000A0800120D3E75120005D202806D114220D
:1015C0001E4904F18200FFF715F80CE0201D00F021
:1015D000CCFA401E04F1500100220A54142204F1F6
:1015E0008200FFF707F8012084F896001BE000BF97
:1015F00040F21510A08000BF0A21201D00F030FB32
:1016000008B90020ABE700BF08220D4904F15000E3
:10161000FEF758FF38B9201D00F0A7FA801E04F12C
:10162000500100220A54E2E7FFE700250020A080D5
:10163000022094E79F3F000824000020E43F0008B8
:10164000FA3F000870B504460126B4F84C00E828BB
:101650003AD005DC48B1E2281DD0E52867D127E063
:10166000EE284ED0F02862D157E004F1980104F141
:10167000820000F0A1F910BB04F198012F4800F09E
:101680009BF92E4904F18200FEF7CEFE00BFE22056
:10169000A4F84C0000BF2A49204600F0B9FB08B965
:1016A000002070BD00BF00BFE520A4F84C0000BFC3
:1016B000204600F07DFB08B90020F2E734E000BFCF
:1016C000E820A4F84C0000BF1E49204600F0A0FB13
:1016D00008B90020E5E700BF2E2104F18200FEF7E3
:1016E00099FE0546A5B1062217492846FEF7EAFEEF
:1016F00070B90020A4F84E0000BFEE20A4F84C0002
:1017000000BF204600F024F808B90020C9E70BE02C
:1017100000BFF020A4F84C0000BF204600F048FBBA
:1017200008B90020BDE700BF102008490870002656
:101730000020A4F84C000220B3E70000F03F0008AE
:101740005740000803400008A8410008240000207A
:101750002DE9F04104464FF00108B4F84E0030B1D5
:1017600090282BD0922836D0B1287DD18CE09FE0F4
:10177000D4F898000078252846D1D4F8980040780D
:10178000212841D1D4F89800C01CC4F8A4009C20A2
:101790000059C01EC4F8A800D4F8A40010F8010C29
:1017A0003A2813D1D4F8A410481C04F1980100F091
:1017B00003F900BF9020A4F84E0000BF204600F0BF
:1017C000F7FA10B90020BDE8F08112E000BF9220C6
:1017D000A4F84E0000BFD4F8A40000F0CFF80746EC
:1017E000D4F8A46031462046B84708B90020EAE79B
:1017F00000BF204600F09CF99834E0682060216921
:10180000983C9C20015153E09C2000592E490968C6
:10181000498A884205DD2C480068408AC4F8A00047
:1018200003E09C200059C4F8A000D4F89800007888
:10183000252807D1D4F89810481C2521FEF7EAFD89
:10184000054605E02521D4F89800FEF7E3FD05469E
:10185000ADB1D4F89800A84211D054F8980F281AC6
:10186000A060A068983C00E027E017490968498A11
:10187000884204DB14480068408AC4F8A00000BF16
:10188000B120A4F84E0000BF204600F0B9FB08B913
:10189000002098E700BF54F8980FA168084444F866
:1018A00098099C200059D4F8A010411A9C2001519D
:1018B0009C20005900283FF75BAF4FF00008002044
:1018C000A4F84E0002207EE728000020014608020E
:1018D00040EA212080B2704710B52648006800F128
:1018E0001C042548007800F01000002840D1224850
:1018F000007800F0200000283AD11F48007800F05E
:101900008000002834D11C48007800F04000B0B1BD
:10191000312204F15001201D00F074F9312204F14C
:10192000500104F1280000F06DF90020A4F84C00EB
:1019300084F8960020702046FFF7ECFD18E0A4B173
:101940000D48007800F0080048B12078401C207055
:101950002078142805DB20200749087001E00020CA
:1019600020702046FFF7D6FD02E0202002490870D3
:1019700010BD0000280000202400002070B505469E
:101980000B4C0FE021680868FEF77DFD06462168D4
:10199000324608682946FEF795FD10B92068406870
:1019A00070BD241D20680028ECD10248F8E7000033
:1019B00044000020531B00082DE9F04107460D4666
:1019C00000260E4C15E03846616800F01BF868B937
:1019D000A0682860E0686860094830F81600401C7C
:1019E000074921F816000120BDE8F081701C86B27D
:1019F0002468002CE7D10020F6E70000743F0008BF
:101A00007000002010B502460B46002100BF585C54
:101A100028B1505C0D2802D0505C0A2801D100206A
:101A200010BD505C5C5CA04201D00120F8E7481C6E
:101A3000C1B2ECE710B54FF4A04000F0C1FD10BDFD
:101A40000EB5FEF765FFFEF74DFF3348C06880F422
:101A500000503149C860314903C9CDE9010101A8ED
:101A6000FFF7B0FA00F062FD00F0B6FBFFF7E2FF0F
:101A700000BF9DF804002A4908709DF805004870D1
:101A80009DF8060088709DF80700C8709DF8080052
:101A900008719DF80900487100BF00BF4AF6C000F8
:101AA000ADF800004FF46450ADF8020000BF00BF75
:101AB000BDF800001B490880BDF80200488000BF47
:101AC00000BF4AF6C000ADF800004FF48070ADF8DA
:101AD000020000BF00BFBDF8000013490880BDF838
:101AE0000200488000BF00BF4FF6FF70ADF8000055
:101AF000FF20ADF8020000BF00BFBDF800000B4999
:101B00000880BDF80200488000BF03E001F0D6FD68
:101B100001F098FDFAE70000001001402C370008A2
:101B20001000002004000020080000200C0000200D
:101B300070B5044654F8A40F0A21FEF76BFC451C4F
:101B40002188691A89B26068401A606044F8A45913
:101B500070BD02460B460121108D00B900BF00BFC9
:101B60000021002010850220704701468A8B088BD7
:101B7000101A80B2704700002DE9F04104460D466E
:101B800016460127608810B1EE2831D11BE02DB92F
:101B900000BF002060800120BDE8F0813046A847EA
:101BA0002082164800686060002084F8200000BF92
:101BB0001348007800F0040008B13046A84700BF81
:101BC000EE20608000BF2046FFF746F880462046A2
:101BD00000F0C6F808EA0008B8F1000F01D10020B3
:101BE000DAE700BF208A0028E2DC002084F8200029
:101BF0000027002060800220CEE7000018000020AF
:101C00002400002070B504460E461546002084F8D6
:101C100020006082E660E561AAB2314604F114005A
:101C2000FEF7F4FF00202080608070BD0146488AE6
:101C3000002801DD0120704791F82000022804D11E
:101C4000032081F820000020F5E70448007800F028
:101C5000020008B10120EEE70020ECE7240000209C
:101C600070B504460D460126608820B1A0F21B1015
:101C7000002835D10EE0A08B82B204F11400E16897
:101C8000FEF7C4FF00BF608AA0B900BF40F21B107E
:101C9000608000BF2046FFF7C9FF08B9002070BD73
:101CA00000BF022084F8200010480068A06010489F
:101CB0000088608204F1120304F108022946981C8E
:101CC000FEF771FF00F002000028DCD02046FFF78D
:101CD0004CFF28B9002084F8200000BF6080DEE7B8
:101CE0000026002060800220D9E7000018000020B4
:101CF000200000202DE9F04104460E46154601273C
:101D0000608810B1CF2826D110E02DB900BF002087
:101D100060800120BDE8F08166602582002084F8A3
:101D2000200012E000BFCF20608000BF2046FEF7F9
:101D300093FF8046204600F013F808EA0008B8F147
:101D4000000F01D10020E5E700BF208A0028E9DC70
:101D5000002084F820000027002060800220D9E7BE
:101D600010B5044694F82000062804D10E480078E7
:101D700000F00400A8B1208A0C490968498A884209
:101D800006DD0A4A1268518A606801F019FC03E016
:101D9000218A606801F014FC062084F820000120EC
:101DA00010BD0020FCE700002400002028000020D7
:101DB00070B504460125208D10B1642820D104E0BF
:101DC00000BF00BF6420208500BF22460F4904F1F8
:101DD0002800FFF7D1FE08B9002070BD00BF9C208D
:101DE0000059D4F8A010411A9C20015154F8980FC2
:101DF000A168084444F898099C2000590028E0DCB8
:101E00000025002020850220E7E70000411400089B
:101E10002DE9F04104460E460127208DCB2865D0E0
:101E200007DC78B1C22811D0C62829D0C92834D1FE
:101E300044E0CD2872D0CF287DD0D1287CD0D328C3
:101E4000F5D1AFE000BFC220208500BF3046FEF7CD
:101E50001AFB80464246314604F12800FFF74AFF4C
:101E600010B90020BDE8F08100BF2E2104F18200EE
:101E7000FEF7FEFA05468DB900BFC620208500BFDB
:101E80005248FEF700FB80464246504904F12800C4
:101E9000FFF730FF08B90020E4E791E0052229466A
:101EA0004B48FEF70FFB28B1062229464948FEF7AA
:101EB00009FB88B900BFC920208500BF4648FEF74E
:101EC000E2FA80464246444904F12800FFF712FF37
:101ED00008B90020C6E773E0042229463F48FEF710
:101EE000F1FA88B900BFCB20208500BF3C48FEF73F
:101EF000CAFA804642463A4904F12800FFF7FAFE42
:101F000008B90020AEE75BE0042229463548FEF719
:101F1000D9FA98B900BFCD20208500BF3248FEF71E
:101F2000B2FA80464246304904F12800FFF7E2FE4B
:101F300018B9002096E70BE022E041E00422294690
:101F40002A48FEF7BFFA88B900BFCF20208500BF1E
:101F50002748FEF798FA80464246254904F12800B2
:101F6000FFF7C8FE08B900207CE729E004222946D3
:101F70002048FEF7A7FA88B900BFD120208500BF0E
:101F80001D48FEF780FA804642461B4904F12800AE
:101F9000FFF7B0FE08B9002064E711E000BFD320CE
:101FA000208500BF1548FEF76EFA80464246134969
:101FB00004F12800FFF79EFE08B9002052E700BF99
:101FC00000270020208502204CE700007741000810
:101FD000A2410008A8410008CF400008B441000811
:101FE000EB400008B941000822410008BE4100084A
:101FF0003E410008C34100085A410008B2400008B1
:1020000070B504460125208D10B1712810D103E070
:1020100000BF7120208500BF04F12800D4F8A02063
:10202000D4F89810FFF766FE08B9002070BD00BF15
:102030000025002020850220F8E70000C2780A442D
:10204000194BDA70827802EB21229A7042785A702A
:1020500002781A701A469278B2EB212F0ADA1A46E1
:102060005278521C5A701A4652781AB91A46127887
:10207000521C1A700C4AD278CBB29A4212DA0A4A2F
:102080009278521C084B9A701A46927852B91A46A6
:102090005278521C5A701A4652781AB91A46127857
:1020A000521C1A70704700003400002010B504461E
:1020B00021460D4800680830FFF7C0FF0B48007844
:1020C000094909680872094841780748006841725F
:1020D000064881780448006881720448C178024843
:1020E0000068C17210BD00002800002034000020EC
:1020F00010B5354800882A2803D2002032490880CC
:1021000010BD0020304908803048808AB0F5807FBB
:1021100003D0B0F5007F54D141E02C48C08C2C494D
:10212000098888423AD12948008D2949498888423E
:1021300034D126491631881D00F066F94FF400703D
:10214000224988820846D1F816200262498B818490
:1021500020490A68C0F81620898841831D490A6809
:10216000C0F806208988418101460A6A0260898C8C
:102170008180808B1549C8840846C18B018514482D
:10218000008812498883124841881048C1834FF45F
:10219000C1600E4988812A200B49088011E00B4854
:1021A000C08C0B49098888420AD10848008D08492B
:1021B0004988884204D105491631881D00F024F968
:1021C00000BF00BF00BF9BE7200000207800002078
:1021D000040000201000002000200B4908700DE0D2
:1021E0000948007800EB4000084901EB800000211D
:1021F000016005480078401C0349087002480078D7
:102200000828EDDB70470000400000207C22002001
:1022100010B55B48C08B5B49098888420CD158488F
:10222000008C58494988884206D1554856490A6861
:1022300002608988818091E05148C08B53490988A8
:10224000084053490988514A1288114088420BD1ED
:102250004B48008C4D49498808404D4949884B4AB4
:1022600052881140884208D000BF4A4800884A4935
:10227000088048484088488008E000BF4048C08B3C
:10228000454908803E48008C488000BF00204349F3
:10229000087016E04148007800EB4000404901EB2F
:1022A00080043D4800882188884205D13A4840880A
:1022B0006188884200D108E038480078401C3749DE
:1022C0000870364800780828E4DB00BF33480078FF
:1022D00008283ED1FF2206212948FEF783F9284825
:1022E0000021016281842F490A68C0F8062089888C
:1022F00041812C490A68C0F816208988418300BFB3
:10230000254800881E49C884234841881C48018507
:1023100000BF00BF1E480088194988831C484188B7
:102320001748C18300BF4FF4807015498882C88167
:1023300008200882062088740420C8744FF4C16005
:10234000888101F13600184908602A201749088061
:1023500010BD0B48616801602189818008481149DE
:102360000A68C0F8062089884181082004498881CC
:102370000E4800880E300D49088000BFE8E70000D5
:1023800078000020403700083A3700080C00002091
:1023900004000020080000203C0000204000002035
:1023A0007C220020100000201800002020000020C7
:1023B00012490978491C114A11700021104A117004
:1023C00017E00F49097801EB41010E4A02EB810049
:1023D00001884288114339B1817A084A1278511A2A
:1023E000782901DB0021016005490978491C044A6C
:1023F0001170034909780829E3DB70474200002087
:10240000400000207C22002010B502460023424CF0
:1024100023701FE0404B1B7803EB43033F4C04EB5E
:10242000830003888BB143887BB113880488A3425F
:102430000BD153884488A34207D10B6843608B8833
:102440000381374B1B78837210BD334B1B785B1CA9
:10245000314C2370304B1B78082BDBDB00232E4CD8
:10246000237010E02C4B1B7803EB43032B4C04EB45
:102470008300038813B9438803B908E0264B1B780F
:102480005B1C254C2370244B1B78082BEADB00BF18
:10249000214B1B78082B34D10023224C2370224C73
:1024A00023701D4C23701DE01B4B1B7803EB430373
:1024B0001A4C04EB8300837A194C2478E31A194CE4
:1024C0002478A34209DD837A154C2478E31A154C4D
:1024D0002370114B1B78144C23700F4B1B785B1C23
:1024E0000D4C23700C4B1B78082BDDDB0E4B1B783F
:1024F000094C237023461B7803EB4303074C04EB82
:102500008300136803600B6843608B880381044B6E
:102510001B78837200BF97E7400000207C220020D8
:102520004200002043000020410000200020174905
:1025300008700AE000201649144A127821F81200A7
:1025400012480078401C114908701048007828286B
:10255000F0DB00200D4908700FE000200B490978DE
:1025600001EB011101EB41010A4A02EB81014876BE
:1025700006480078401C054908700448007828285F
:10258000EBDB4FF48060044908807047380000207E
:1025900000220020200200203200002010B514226A
:1025A00006490020FEF735FB044614B94FF6FF70CC
:1025B00010BD2046FFF78AF9FAE7000086000020E8
:1025C00000210D4A117010E00C490B4A127831F8C5
:1025D000121029B90949084A127821F812007047E7
:1025E00005490978491C044A1170034909782829CA
:1025F000EADB00BFF3E700003800002000220020E3
:102600007047000070B50546FA480468FA48FB496F
:102610000860FB490860032D0ED1607E00F00F00BA
:10262000032807D1208A28B90820F6490870FFF747
:1026300053F9F4E300F0B0BF022D73D1F248C07833
:10264000401CC0B2F049C87078B908468078401C78
:10265000C0B2887048B908464078401CC0B2487083
:1026600018B908460078401C08700020E749088027
:10267000E7490880607E072802D0607E052808D1DF
:10268000A07E401CA076A07E782860D100206076D5
:102690005DE0607E00285AD0208A00284CD0A17EC0
:1026A000481EA076002952D1E07E082808D0607E1E
:1026B000022802D0607E01280FD1E07E05280CD1CF
:1026C000002060768020CF490870FFF705F91421BB
:1026D000C948363880F82F10F5E3E07E042801DD84
:1026E000042000E0E07E03218140A176E07E401CD2
:1026F000E076C848C08C401C81B2C648C184607E68
:1027000000F00F00092822D2DFE800F02105060DB5
:1027100013211421150061E30021B748363880F8F1
:102720002F1060E314E00420B6490870FFF7D4F8D6
:10273000E0E300BF00BFDEE3607E00F00F0003288F
:1027400005D10820AF490870FFF7C6F871E771E7B7
:10275000B0484088401CAF494880A7483638807B45
:1027600045280BD008460088401C08800846C088D1
:10277000401CC880A8A0FFF743FF5BE79E4836389F
:10278000417C007C01EB0020A0490988884208DCDC
:1027900099483638417C007C01EB00209B49088039
:1027A00003E0A7A0FFF72CFF44E793483638007DED
:1027B00000F03F0018B990483638407D60B1954828
:1027C0000088401C9349088008468089401C888105
:1027D000A7A0FFF715FF2DE7AB480088AB49098894
:1027E000884205D1A8484088A8494988884213D022
:1027F00081483638C08BA4490988884206D17E4872
:102800003638008CA0494988884205D08148008824
:10281000401C804908800DE7FFF7C0FE4FF6FF71AE
:1028200088420CD07B480088401C7A4908800846C2
:10283000C089401CC88196A0FFF7E2FEFAE66E4808
:102840003638C07D062800D162E06B483638C07D3E
:1028500001280CD06F480088401C6E49088008464B
:10286000008A401C08828FA0FFF7CAFEE2E6694892
:10287000808A401C81B2674881825F48363890F870
:10288000220008280ED06348408A401C61494882D3
:102890000846008B401C81B25E48018388A0FFF788
:1028A000AFFEC7E600215448363880F82210808CED
:1028B0004FF6F771884208DB4F483638808C093074
:1028C00081B24D483638818407E04B483638808CD9
:1028D000083081B248483638818400BF46483638CF
:1028E000418BC183818B018400BF00BF6648018892
:1028F000414836384183644841883F4836388183AF
:1029000000BF4448C08A401C81B24248C182E7E30C
:102910004048808B401C81B23E48818300F068FEB5
:102920004FF6FF7188420ED03A48408B401C39491F
:1029300048830846008C401C81B23648018466A05A
:10294000FFF75EFE76E6694C1BE0607EC0B12A4868
:102950003638808CA188884212D127483638408C7E
:10296000E18888420CD124483638408B218888423F
:1029700006D121483638808B6188884200D14FE2E9
:10298000CC345B488442E0D91B48363890F82F009D
:1029900000F03F00022800D022E017483638808C33
:1029A000544908800020544908700EE053485249A9
:1029B000097830F811004F490988884200D123E195
:1029C0004D480078401C4C4908704B480078282836
:1029D000ECDB1048408D401C81B20E48418500BFA1
:1029E0000548363890F82F0000F0040000B121E6C9
:1029F00086E0000028000020AE0000201800002023
:102A00001C000020240000202E00002020000020B8
:102A1000220000205022002069703A20696E766101
:102A20006C69642076657273696F6E206F722068BE
:102A30006561646572206C656E6774682E000000C5
:102A400069703A207061636B65742073686F72748B
:102A50006572207468616E207265706F727465644F
:102A600020696E204950206865616465722E0000FF
:102A700069703A20667261676D656E742064726F6A
:102A8000707065642E0000000400002036370008D6
:102A900069703A2062616420636865636B73756D69
:102AA0002E00000069703A206E65697468657220B6
:102AB000746370206E6F722069636D702E00000069
:102AC00069636D703A206E6F742069636D70206564
:102AD00063686F2E000000007463703A20626164C6
:102AE00020636865636B73756D2E00002002002003
:102AF000342100203A00002038000020002200206D
:102B0000FE48808C401C81B2FC4881841421FC4822
:102B100080F82F102820FB4908805021F84880F8C1
:102B20002E1090F82900F8490870F54890F82D10FB
:102B300080F82910F4480178F14880F82D1090F8B9
:102B40002800F1490870EE4890F82C1080F8281001
:102B5000ED480178EA4880F82C1090F82700EA49FF
:102B60000870E74890F82B1080F82710E6480178A5
:102B7000E34880F82B1090F82600E3490870E048FD
:102B800090F82A1080F82610DF480178DC4880F899
:102B90002A1090F82D00401CC1B2D94880F82D10A1
:102BA000B1B990F82C00401CC1B2D54880F82C1067
:102BB00071B990F82B00401CC1B2D14880F82B109D
:102BC00031B990F82A00401CC1B2CD4880F82A10D3
:102BD000CB48408CCD490880C948818C4184CB4882
:102BE0000188C748818400BF418BC183818B0184E8
:102BF00000BF00BFC6480188C1484183C44841881E
:102C0000BF48818300BFF3E300240020BE49087061
:102C10003AE0BD48007800EB001000EB4000BD49F1
:102C200001EB8000407E40B9B748007800EB00100F
:102C300000EB400001EB80042AE0B348007800EB91
:102C4000001000EB4000B34901EB8000407E0728F4
:102C500015D15CB1AC48007800EB001000EB4000EF
:102C600001EB8000807EA17E884208DDA6480078C6
:102C700000EB001000EB4000A64901EB8004A248E5
:102C80000078401CA04908709F4800782828C0DBC5
:102C900000BF4CB99948008D401C81B2974801850E
:102CA0009DA0FFF7ADFCC5E4A44804600320A07616
:102CB00020760020A0750420E0750020E076904882
:102CC000808CA0808E48408CE08000BF8C48408B78
:102CD00020808B48808B608000BF01206076984800
:102CE000007820739648417861738178A173C17828
:102CF000E17301202082824890F82910E17290F857
:102D00002810A17290F82710617290F826002072A6
:102D10000120FFF7CBF97A4890F82E0000F0F00080
:102D200050285ADD0020784908704AE0764800783B
:102D300036307349085C834908700846007800B94A
:102D40004AE080480078012805D16F480078401C8F
:102D50006D49087035E07B480078022820D16A4828
:102D6000007837306649085C042819D16648007835
:102D70003930095C644800783830614A105C41EAB7
:102D800000206249088008460088B0F5B77F02DD60
:102D90004FF4B77001E05D4800886082A0821BE0BC
:102DA0005948007837305649085C00B914E0564855
:102DB000007837305249085C534909780844524931
:102DC00008704F4890F82E000521C1EB20104E49A5
:102DD0000978B1EB800FA9DB00BF00BF1021484884
:102DE00080F82F1000BF464890F82F0040F00201F5
:102DF000434880F82F10022180F83610042180F813
:102E00003710012180F838106E2180F839102C20FD
:102E10003C49088060213A4880F82E1034E33CE2B7
:102E200046480460002048490870354890F82F0053
:102E300000F0040050B10020607644A0FFF7E0FBF2
:102E4000202041490870FEF747FDA5E32C4890F883
:102E50002E00001180002C4908702A48008809784B
:102E6000401A143827490880607E00F00F000228BD
:102E700006D1234890F82F0000F03F00122823D0FD
:102E800020480088002805DC1D4890F82F0000F03D
:102E90000300C8B11A4890F82600217A884211D15F
:102EA000174890F82710607A81420BD1144890F8A7
:102EB0002810A07A814205D1114890F82910E07AB3
:102EC000814201D0D2E208E20D4890F82F0000F0D4
:102ED000100088B1208A78B1218A04F10C00FFF734
:102EE000ADF8074890F82A0022490978884203D1B2
:102EF000034841E013E274E181E000005022002029
:102F00007800002020000020380000203A00002037
:102F100004000020200200207463703A20666F7560
:102F20006E64206E6F20756E7573656420636F6EBE
:102F30006E656374696F6E732E00000028000020B8
:102F40002E00002039000020240000207463703A15
:102F500020676F742072657365742C2061626F72D4
:102F600074696E6720636F6E6E656374696F6E2E31
:102F7000000000003400002090F82B00F849497848
:102F800088423CD1F74890F82C00F549897888426E
:102F900035D1F44890F82D00F149C97888422ED1F6
:102FA000EF4800782073EE48417861738178A1730F
:102FB000C178E173E07ED8B9217EA27E891A48B239
:102FC000A17DA0EBE10148B2A17D0144A1750028DB
:102FD00001DA414248B2E17DA0EBA10148B2E17DB6
:102FE0000144E175E17DA27D01EBE201217600BFA4
:102FF0000120DD490870207EA07600202082607EBE
:1030000000F00F0009286AD2DFE800F0690525C04A
:10301000F4F3F2F1F000D448007800F00100C8B1F8
:10302000032060764020D049087000202082CF48DD
:103030000088002808DD0846007840F0020008708B
:10304000CA480088FFF732F80020C9490880FEF717
:1030500043FC22E1A0E2C448007800F00100E8B39C
:10306000C04890F82F0000F03F00122836D1BD482C
:1030700090F82E0000F0F00050285EDD0020BD49E1
:1030800008704EE0BB4800783630B649085CBA4953
:1030900008700846007800B94EE0B748007801286B
:1030A00005D1B4480078401CB249087039E0B248F4
:1030B0000078022824D1AF4800783730A949085C4D
:1030C00004281DD1AB4800783930095CA948007844
:1030D0003830A44A105C41EA002002E04CE0C3E131
:1030E00051E2A649088008460088B0F5B77F02DDA6
:1030F0004FF4B77001E0A14800886082A0821BE015
:103100009C48007837309749085C00B914E099482A
:10311000007837309349085C964909780844954906
:103120000870904890F82E000521C1EB20109149BD
:103130000978B1EB800FA5DB00BF032060768948DA
:1031400090F826002072874890F82710617290F856
:103150002810A17290F82910E1720120FEF7A6FF55
:1031600042208149087000202082804908808049DF
:103170000880FEF7B1FB90E020207B490870FEF745
:10318000ABFB00207E490968487629E4754890F831
:103190002F0000F0010070B3607E00F0100050BB03
:1031A000208A00B1F8E171490988491C88B2FEF70C
:1031B0007DFF6D48007840F010006B4908706B4847
:1031C0000088002804DD0846007840F002000870FE
:1031D000FEF782FB01202082082060760020E07646
:1031E00000BF11215F4880F82F1044E1CFE031E1AA
:1031F00031E10EE1D8E0FFE75A4890F82F0000F0E7
:103200002000B8B1574890F8351090F8340041EAE2
:1032100000205C49096808445A490860514890F800
:10322000351090F8340041EA002050490988081A06
:103230004E4908804D48008800280DDD607E00F072
:10324000100048B94848007840F00200464908702C
:1032500046480088FEF72AFF424890F8311090F85F
:10326000300001EB002045490880A08A0988884287
:1032700002DB4248008810B9A08A404908803F48D4
:10328000008860823848007800F00300F0B3002026
:1032900037490880FEF720FB00BF3348007800F074
:1032A000200040B1002032490880607614212D486A
:1032B00080F82F10DFE02C48007800F0100068B193
:1032C00000202B4908800120208204206076002005
:1032D000E0761121234880F82F10CCE024480088A4
:1032E000002819DD2048007800F0010008B1002016
:1032F0002082208A68B9608A1D490988884202DADA
:10330000608A1B4908801A48008800E03EE020825D
:1033100002E0208A164908800020E07600BF1A48A3
:103320000068184908601248008800280BDD208AD0
:10333000002808DD208A28300C4908801821094817
:1033400080F82F109BE00848007800F00200E8B1F8
:103350002820064908801021024880F82F108EE0AE
:1033600034000020780000202400002020000020ED
:103370002200002038000020390000203A00002000
:1033800028000020180000201C00002004E18648CE
:10339000007800F0010030B10020607610208249F2
:1033A0000870FEF799FA5FE080480088002803DD86
:1033B0007E480088FEF77AFE7D4890F82F0000F0E6
:1033C0000100B0B17848007800F0010028B1072072
:1033D00060760020A076208201E006206076012041
:1033E000FEF764FE102070490870FEF775FA3DE0A4
:1033F0008CE06D48007800F0010020B10520607677
:1034000000202082C8E069480088002800DD2DE007
:10341000C2E066480088002803DD64480088FEF7A3
:1034200045FE634890F82F0000F0010060B10720CE
:1034300060760020A0760120FEF738FE10205A4961
:103440000870FEF749FA11E058480088002800DDAE
:103450000CE0A1E00AE05448007800F0010018B147
:10346000072060760020A07600BF95E0102150482C
:1034700080F82F1000BF28204C49088000BF502141
:103480004B4880F82E1000BF217A494880F82A1056
:10349000617A80F82B10A17A80F82C10E17A80F8FC
:1034A0002D10217B80F82610617B80F82710A17BEE
:1034B00080F82810E17B80F829100621C175A188C9
:1034C0004184E188818400BF3A48018838484183BB
:1034D000384841883648818300BF00BF2188C183B6
:1034E0006188018400BF607E00F0100030B10021CF
:1034F0002F4880F8311080F8301006E001212C4868
:1035000080F830106E2180F8311000BF402128482B
:1035100081752648008801122548017423480178E6
:1035200023484174002180F8351080F8341041861A
:1035300000F05EF8C04381B21D48418645201C4919
:10354000887300211A48C173417501751A480088B3
:10355000401C1949088008460088011214488174EB
:10356000154801781248C17400210183FFF716F84D
:10357000C04381B20E4801831048C08B401C81B209
:103580000E48C18300BF0D488088401C0B498880CD
:1035900000200549087070BD0020044908800249D8
:1035A000087000BFF7E70000240000202000002082
:1035B00078000020040000202C0000205022002071
:1035C00070B504460D46002D0CDD07490D800748F7
:1035D0000068844206D008460288214603480068F5
:1035E000FCF7BBFF70BD0000220000201C00002083
:1035F00010B5062000F002F810BD000070B50446BA
:103600000F48417C007C01EB0020143885B228195A
:1036100086B208220A491A313046FDF7FAFA064600
:103620002A46074922313046FDF7F3FA064616B915
:103630004FF6FF7070BD3046FEF748F9FAE700001C
:103640007800002010B54FF4D2711A48FDF7A8FD9C
:103650001949088008460088002829DD4FF40060D9
:10366000FEF734F91349898988420ED10120FEF70B
:10367000C9FF1148008800281ADDFEF7C9FD0E4871
:1036800001880C48FDF7D6FD12E040F60600FEF773
:103690001DF90849898988420AD1FEF729FD0648A3
:1036A0000088002804DD044801880248FDF7C2FDB7
:1036B00010BD0000780000202000002070B500251B
:1036C000002000E0401C42F210718842FADB681CC6
:1036D000C5B2002419E000BF04EB041000EB400069
:1036E0000E4901EB80000E4908600220FEF78AFFB8
:1036F00000BF0C480088002806DDFEF789FD094858
:1037000001880948FDF796FD641C282CE3D3322D6F
:1037100002DB0025FEF74CFE70BD000020020020F9
:103720002800002020000020780000205455581068
:103730000029FFFFFFFF00000000FFFFFFFFFFFF6A
:10374000FFFFFFFFE441000889140008434C4F537A
:1037500045440053594E2D524356440053594E2D63
:1037600053454E540045535441424C4953484544F7
:103770000046494E2D574149542D310046494E2DA2
:10378000574149542D3200434C4F53494E47005442
:10379000494D452D57414954004C4153542D414307
:1037A0004B0000002F696E6465782E68746D6C00A4
:1037B0003C21444F43545950452048544D4C2050CF
:1037C00055424C494320222D2F2F5733432F2F444E
:1037D00054442048544D4C20342E303120547261D2
:1037E0006E736974696F6E616C2F2F454E222022B3
:1037F000687474703A2F2F7777772E77332E6F7225
:10380000672F54522F68746D6C342F6C6F6F736513
:103810002E647464223E0A3C68746D6C3E0A20205B
:103820003C686561643E0A202020203C7469746C09
:10383000653E57656C636F6D6520746F20746865B5
:103840002075495020776562207365727665722114
:103850003C2F7469746C653E0A202020203C6C6902
:103860006E6B2072656C3D227374796C657368654C
:1038700065742220747970653D22746578742F63B5
:1038800073732220687265663D227374796C652EAD
:10389000637373223E20200A20203C2F68656164F8
:1038A0003E0A20203C626F6479206267636F6C6F10
:1038B000723D2223666666656563222074657874AE
:1038C0003D22626C61636B223E0A0A20203C6469DF
:1038D0007620636C6173733D226D656E75223E0ABE
:1038E00020203C64697620636C6173733D226D65B2
:1038F0006E75626F78223E3C6120687265663D227B
:103900002F223E46726F6E7420706167653C2F6196
:103910003E3C2F6469763E0A20203C646976206331
:103920006C6173733D226D656E75626F78223E3CEB
:103930006120687265663D22746573745F66756E9A
:103940006374696F6E2E7368746D6C223E526F6F74
:103950006D2054656D70657261747572653C2F6180
:103960003E3C2F6469763E0A20203C62723E0A206B
:10397000203C2F6469763E0A0A20203C6469762048
:10398000636C6173733D22636F6E74656E74626CF9
:103990006F636B223E0A20203C703E0A2020546850
:1039A0006573652077656220706167657320617259
:1039B0006520736572766564206279206120736D7D
:1039C000616C6C2077656220736572766572207217
:1039D000756E6E696E67206F6E20746F70206F66F3
:1039E0000A2020746865203C6120687265663D226B
:1039F000687474703A2F2F7777772E736963732EFC
:103A000073652F7E6164616D2F7569702F223E751D
:103A1000495020656D626564646564205443502F8D
:103A200049500A2020737461636B3C2F613E2E0A5B
:103A300020203C2F703E0A20203C703E0A2020436C
:103A40006C69636B206F6E20746865206C696E6BA7
:103A5000732061626F766520666F722077656220E1
:103A600073657276657220737461746973746963C7
:103A7000732E0A20203C2F703E0A0A20203C2F6221
:103A80006F64793E0A3C2F68746D6C3E0A002F7398
:103A900074796C652E637373006831200A7B0A2089
:103AA00020746578742D616C69676E3A2063656E69
:103AB0007465723B0A2020666F6E742D73697A6597
:103AC0003A313470743B0A2020666F6E742D666143
:103AD0006D696C793A617269616C2C68656C7665A8
:103AE000746963613B0A2020666F6E742D77656987
:103AF0006768743A626F6C643B0A2020706164648A
:103B0000696E673A313070783B200A7D0A0A626F2D
:103B100064790A7B0A0A20206261636B67726F75A1
:103B20006E642D636F6C6F723A20236666666565FE
:103B3000633B0A2020636F6C6F723A626C61636B47
:103B40003B0A0A2020666F6E742D73697A653A38D5
:103B500070743B0A2020666F6E742D66616D696C0F
:103B6000793A617269616C2C68656C766574696319
:103B7000613B0A7D0A0A2E6D656E750A7B0A20205C
:103B80006D617267696E3A203470783B0A20207745
:103B9000696474683A3630253B0A0A2020706164F3
:103BA00064696E673A3270783B0A090A2020626FB6
:103BB000726465723A20736F6C6964203170783B6F
:103BC0000A20206261636B67726F756E642D636F8C
:103BD0006C6F723A20236666666364323B0A20206B
:103BE000746578742D616C69676E3A6C6566743BB8
:103BF0000A20200A2020666F6E742D73697A653A58
:103C00003970743B0A2020666F6E742D66616D6991
:103C10006C793A617269616C2C68656C766574695F
:103C200063613B20200A7D0A0A6469762E6D656E09
:103C300075626F780A7B0A202077696474683A207D
:103C40003235253B0A2020626F726465723A20305B
:103C50003B0A2020666C6F61743A206C6566743B89
:103C60000A746578742D616C69676E3A2063656EBD
:103C70007465723B0A7D0A0A2E636F6E74656E74FA
:103C8000626C6F636B0A7B20200A20206D61726773
:103C9000696E3A203470783B0A2020776964746832
:103CA0003A3630253B0A0A202070616464696E67E9
:103CB0003A3270783B0A0A2020626F726465723A69
:103CC0002031707820646F747465643B0A20206230
:103CD00061636B67726F756E642D636F6C6F723AA0
:103CE0002077686974653B0A0A2020666F6E742D20
:103CF00073697A653A3870743B0A2020666F6E7477
:103D00002D66616D696C793A617269616C2C6865C8
:103D10006C7665746963613B20200A0A7D0A0A702B
:103D20002E696E74726F0A7B0A20206D617267695A
:103D30006E2D6C6566743A323070783B0A20206DC7
:103D4000617267696E2D72696768743A3230707893
:103D50003B0A0A2020666F6E742D73697A653A31CA
:103D60003070743B0A2F2A2020666F6E742D7765A1
:103D7000696768743A626F6C643B202A2F0A2020BE
:103D8000666F6E742D66616D696C793A61726961F6
:103D90006C2C68656C7665746963613B20200A7DD4
:103DA0000A0A702E636C696E6B0A7B0A2020666FAC
:103DB0006E742D73697A653A313270743B0A202033
:103DC000666F6E742D66616D696C793A636F75729A
:103DD0006965722C6D6F6E6F73706163653B202037
:103DE0000A2020746578742D616C69676E3A63658A
:103DF0006E7465723B0A7D0A0A702E636C696E6B85
:103E0000390A7B0A2020666F6E742D73697A653AD1
:103E10003970743B0A2020666F6E742D66616D697F
:103E20006C793A636F75726965722C6D6F6E6F7322
:103E3000706163653B20200A2020746578742D61D1
:103E40006C69676E3A63656E7465723B0A7D0A0A37
:103E50000A700A7B0A202070616464696E672D6CA9
:103E60006566743A313070783B0A7D0A0A702E72AA
:103E7000696768740A7B0A2020746578742D616C08
:103E800069676E3A72696768743B200A7D0A0A00A6
:103E90002F746573745F66756E6374696F6E2E73CD
:103EA00068746D6C003C68746D6C3E0A093C686512
:103EB00061643E0A09093C7469746C653E526F6F17
:103EC0006D2054656D70657261747572653C2F74F8
:103ED00069746C653E0A093C2F686561643E0A0995
:103EE0003C626F64793E0A09093C703ED2E5ECEF12
:103EF000E5F0E0F2F3F0E020E220EAEEECEDE0F2B3
:103F0000E53A3C2F703E0A0909252120726F6F6D3A
:103F100054656D70657261747572650A09093C704B
:103F20003EE3F0E0E4F3F1EEE220EFEE20F6E5EB25
:103F3000FCF1E8FE3C2F703E0A093C2F626F647969
:103F40003E0A3C2F68746D6C3E0A000000000000C1
:103F5000A4370008B0370008DE02000000000000AF
:103F60004C3F00088E3A0008993A0008F703000019
:103F700000000000603F0008903E0008A53E0008D9
:103F8000A600000000000000687474703A2F2F0033
:103F900032303020003330312000333032200047BF
:103FA00045542000485454502F312E30004854546A
:103FB000502F312E3100636F6E74656E742D7479DD
:103FC00070653A2000746578742F68746D6C006CAD
:103FD0006F636174696F6E3A2000686F73743A2082
:103FE000000D0A002F696E6465782E68746D6C0090
:103FF0002F3430342E68746D6C00526566657265BE
:10400000723A00485454502F312E30203230302034
:104010004F4B0D0A5365727665723A207549502FE1
:10402000312E3020687474703A2F2F7777772E7383
:104030006963732E73652F7E6164616D2F7569707E
:104040002F0D0A436F6E6E656374696F6E3A20635D
:104050006C6F73650D0A00485454502F312E302078
:10406000343034204E6F7420666F756E640D0A53C1
:1040700065727665723A207549502F312E3020686E
:104080007474703A2F2F7777772E736963732E735A
:10409000652F7E6164616D2F7569702F0D0A436F06
:1040A0006E6E656374696F6E3A20636C6F73650D35
:1040B0000A00436F6E74656E742D747970653A20D2
:1040C000746578742F706C61696E0D0A0D0A004377
:1040D0006F6E74656E742D747970653A20746578AE
:1040E000742F68746D6C0D0A0D0A00436F6E746551
:1040F0006E742D747970653A20746578742F6373CB
:10410000730D0A0D0A00436F6E74656E742D747919
:1041100070653A20746578742F746578740D0A0D93
:104120000A00436F6E74656E742D747970653A2061
:10413000696D6167652F706E670D0A0D0A00436F28
:104140006E74656E742D747970653A20696D61675F
:10415000652F6769660D0A0D0A00436F6E74656E00
:10416000742D747970653A20696D6167652F6A7086
:1041700065670D0A0D0A00436F6E74656E742D74C9
:104180007970653A206170706C69636174696F6EF3
:104190002F6F637465742D73747265616D0D0A0DF4
:1041A0000A002E68746D6C002E7368746D6C002E9E
:1041B00068746D002E637373002E706E67002E6737
:1041C0006966002E6A7067002E747874002E747809
:1041D000740004000008000000000000000200015C
:1041E00000001000726F6F6D54656D7065726174C0
:1041F000757265001442000800000020780000007D
:10420000280100088C42000878000020C82800001F
:104210004401000800000000000000000000000051
:10422000000000000000000000000000000000008E
:10423000000000000000000000000000000000007E
:10424000000000000000000000000000000000006E
:1042500000000000000000004437000800000000DB
:104260004C370008533700085C37000865370008F2
:10427000713700087C370008873700088F3700083F
:0C4280009937000800000000000000005A
:040000050800019955
:00000001FF
